{
  "_format": "hh-sol-artifact-1",
  "contractName": "HostRegistry",
  "sourceName": "contracts/HostRegistry.sol",
  "abi": [
    {
      "inputs": [],
      "stateMutability": "nonpayable",
      "type": "constructor"
    },
    {
      "anonymous": false,
      "inputs": [
        {
          "indexed": true,
          "internalType": "address",
          "name": "wallet",
          "type": "address"
        },
        {
          "indexed": false,
          "internalType": "uint256",
          "name": "amount",
          "type": "uint256"
        },
        {
          "indexed": false,
          "internalType": "string",
          "name": "reason",
          "type": "string"
        }
      ],
      "name": "DepositSlashed",
      "type": "event"
    },
    {
      "anonymous": false,
      "inputs": [
        {
          "indexed": true,
          "internalType": "address",
          "name": "wallet",
          "type": "address"
        }
      ],
      "name": "HostDeregistered",
      "type": "event"
    },
    {
      "anonymous": false,
      "inputs": [
        {
          "indexed": true,
          "internalType": "address",
          "name": "wallet",
          "type": "address"
        },
        {
          "indexed": false,
          "internalType": "uint256",
          "name": "spaceGB",
          "type": "uint256"
        },
        {
          "indexed": false,
          "internalType": "string",
          "name": "country",
          "type": "string"
        }
      ],
      "name": "HostRegistered",
      "type": "event"
    },
    {
      "anonymous": false,
      "inputs": [
        {
          "indexed": true,
          "internalType": "address",
          "name": "wallet",
          "type": "address"
        },
        {
          "indexed": false,
          "internalType": "uint256",
          "name": "newScore",
          "type": "uint256"
        }
      ],
      "name": "ReputationUpdated",
      "type": "event"
    },
    {
      "anonymous": false,
      "inputs": [
        {
          "indexed": true,
          "internalType": "address",
          "name": "wallet",
          "type": "address"
        },
        {
          "indexed": false,
          "internalType": "uint256",
          "name": "newAvailableSpaceGB",
          "type": "uint256"
        }
      ],
      "name": "SpaceUpdated",
      "type": "event"
    },
    {
      "inputs": [],
      "name": "deregisterHost",
      "outputs": [],
      "stateMutability": "nonpayable",
      "type": "function"
    },
    {
      "inputs": [],
      "name": "getActiveHosts",
      "outputs": [
        {
          "internalType": "address[]",
          "name": "",
          "type": "address[]"
        }
      ],
      "stateMutability": "view",
      "type": "function"
    },
    {
      "inputs": [
        {
          "internalType": "address",
          "name": "_wallet",
          "type": "address"
        }
      ],
      "name": "getHost",
      "outputs": [
        {
          "components": [
            {
              "internalType": "address",
              "name": "wallet",
              "type": "address"
            },
            {
              "internalType": "uint256",
              "name": "totalSpaceGB",
              "type": "uint256"
            },
            {
              "internalType": "uint256",
              "name": "availableSpaceGB",
              "type": "uint256"
            },
            {
              "internalType": "uint256",
              "name": "pricePerGBPerDay",
              "type": "uint256"
            },
            {
              "internalType": "string",
              "name": "country",
              "type": "string"
            },
            {
              "internalType": "bytes32",
              "name": "paymentAccountHash",
              "type": "bytes32"
            },
            {
              "internalType": "uint256",
              "name": "depositAmount",
              "type": "uint256"
            },
            {
              "internalType": "bool",
              "name": "isActive",
              "type": "bool"
            },
            {
              "internalType": "uint256",
              "name": "reputationScore",
              "type": "uint256"
            },
            {
              "internalType": "uint256",
              "name": "joinedAt",
              "type": "uint256"
            },
            {
              "internalType": "uint256",
              "name": "totalEarned",
              "type": "uint256"
            }
          ],
          "internalType": "struct HostRegistry.Host",
          "name": "",
          "type": "tuple"
        }
      ],
      "stateMutability": "view",
      "type": "function"
    },
    {
      "inputs": [],
      "name": "getTotalHosts",
      "outputs": [
        {
          "internalType": "uint256",
          "name": "",
          "type": "uint256"
        }
      ],
      "stateMutability": "view",
      "type": "function"
    },
    {
      "inputs": [
        {
          "internalType": "uint256",
          "name": "",
          "type": "uint256"
        }
      ],
      "name": "hostList",
      "outputs": [
        {
          "internalType": "address",
          "name": "",
          "type": "address"
        }
      ],
      "stateMutability": "view",
      "type": "function"
    },
    {
      "inputs": [
        {
          "internalType": "address",
          "name": "",
          "type": "address"
        }
      ],
      "name": "hosts",
      "outputs": [
        {
          "internalType": "address",
          "name": "wallet",
          "type": "address"
        },
        {
          "internalType": "uint256",
          "name": "totalSpaceGB",
          "type": "uint256"
        },
        {
          "internalType": "uint256",
          "name": "availableSpaceGB",
          "type": "uint256"
        },
        {
          "internalType": "uint256",
          "name": "pricePerGBPerDay",
          "type": "uint256"
        },
        {
          "internalType": "string",
          "name": "country",
          "type": "string"
        },
        {
          "internalType": "bytes32",
          "name": "paymentAccountHash",
          "type": "bytes32"
        },
        {
          "internalType": "uint256",
          "name": "depositAmount",
          "type": "uint256"
        },
        {
          "internalType": "bool",
          "name": "isActive",
          "type": "bool"
        },
        {
          "internalType": "uint256",
          "name": "reputationScore",
          "type": "uint256"
        },
        {
          "internalType": "uint256",
          "name": "joinedAt",
          "type": "uint256"
        },
        {
          "internalType": "uint256",
          "name": "totalEarned",
          "type": "uint256"
        }
      ],
      "stateMutability": "view",
      "type": "function"
    },
    {
      "inputs": [
        {
          "internalType": "address",
          "name": "_wallet",
          "type": "address"
        }
      ],
      "name": "isActiveHost",
      "outputs": [
        {
          "internalType": "bool",
          "name": "",
          "type": "bool"
        }
      ],
      "stateMutability": "view",
      "type": "function"
    },
    {
      "inputs": [],
      "name": "minimumDeposit",
      "outputs": [
        {
          "internalType": "uint256",
          "name": "",
          "type": "uint256"
        }
      ],
      "stateMutability": "view",
      "type": "function"
    },
    {
      "inputs": [],
      "name": "owner",
      "outputs": [
        {
          "internalType": "address",
          "name": "",
          "type": "address"
        }
      ],
      "stateMutability": "view",
      "type": "function"
    },
    {
      "inputs": [
        {
          "internalType": "uint256",
          "name": "_spaceGB",
          "type": "uint256"
        },
        {
          "internalType": "uint256",
          "name": "_pricePerGBPerDay",
          "type": "uint256"
        },
        {
          "internalType": "string",
          "name": "_country",
          "type": "string"
        },
        {
          "internalType": "bytes32",
          "name": "_paymentAccountHash",
          "type": "bytes32"
        }
      ],
      "name": "registerHost",
      "outputs": [],
      "stateMutability": "payable",
      "type": "function"
    },
    {
      "inputs": [
        {
          "internalType": "bool",
          "name": "_status",
          "type": "bool"
        }
      ],
      "name": "setActiveStatus",
      "outputs": [],
      "stateMutability": "nonpayable",
      "type": "function"
    },
    {
      "inputs": [
        {
          "internalType": "address",
          "name": "_hostWallet",
          "type": "address"
        },
        {
          "internalType": "uint256",
          "name": "_amount",
          "type": "uint256"
        },
        {
          "internalType": "string",
          "name": "_reason",
          "type": "string"
        }
      ],
      "name": "slashDeposit",
      "outputs": [],
      "stateMutability": "nonpayable",
      "type": "function"
    },
    {
      "inputs": [],
      "name": "totalHosts",
      "outputs": [
        {
          "internalType": "uint256",
          "name": "",
          "type": "uint256"
        }
      ],
      "stateMutability": "view",
      "type": "function"
    },
    {
      "inputs": [
        {
          "internalType": "uint256",
          "name": "_newAvailableSpaceGB",
          "type": "uint256"
        }
      ],
      "name": "updateAvailableSpace",
      "outputs": [],
      "stateMutability": "nonpayable",
      "type": "function"
    },
    {
      "inputs": [
        {
          "internalType": "address",
          "name": "_hostWallet",
          "type": "address"
        },
        {
          "internalType": "uint256",
          "name": "_newScore",
          "type": "uint256"
        }
      ],
      "name": "updateReputation",
      "outputs": [],
      "stateMutability": "nonpayable",
      "type": "function"
    }
  ],
  "bytecode": "0x6080604052662386f26fc1000060015534801561001b57600080fd5b50600080546001600160a01b031916331790556116128061003d6000396000f3fe6080604052600436106100e85760003560e01c8063bcd8c9b01161008a578063dc238e0911610059578063dc238e0914610277578063ec7404b1146102a7578063f5c91a08146102c7578063f6bbfe44146102e757600080fd5b8063bcd8c9b0146101f5578063c6eeb07314610222578063d41f0b2614610242578063d489a7071461025757600080fd5b80635aaaf811116100c65780635aaaf8111461014d578063636bfbab146101625780638da5cb5b14610186578063b9ced5fe146101be57600080fd5b806330dbe43e146100ed5780634953bd751461010f5780634e307f281461013a575b600080fd5b3480156100f957600080fd5b5061010d610108366004611002565b6102fd565b005b34801561011b57600080fd5b5061012461040a565b604051610131919061101b565b60405180910390f35b61010d61014836600461110b565b610636565b34801561015957600080fd5b5061010d610985565b34801561016e57600080fd5b5061017860015481565b604051908152602001610131565b34801561019257600080fd5b506000546101a6906001600160a01b031681565b6040516001600160a01b039091168152602001610131565b3480156101ca57600080fd5b506101de6101d936600461117f565b610a3c565b6040516101319b9a999897969594939291906111e7565b34801561020157600080fd5b5061021561021036600461117f565b610b2d565b6040516101319190611254565b34801561022e57600080fd5b5061010d61023d3660046112ff565b610cc4565b34801561024e57600080fd5b50600254610178565b34801561026357600080fd5b506101a6610272366004611002565b610e5f565b34801561028357600080fd5b5061029761029236600461117f565b610e89565b6040519015158152602001610131565b3480156102b357600080fd5b5061010d6102c2366004611356565b610ed3565b3480156102d357600080fd5b5061010d6102e2366004611378565b610f2b565b3480156102f357600080fd5b5061017860025481565b336000908152600360205260409020546001600160a01b031661033b5760405162461bcd60e51b8152600401610332906113a2565b60405180910390fd5b336000908152600360205260409020600101548111156103b85760405162461bcd60e51b815260206004820152603260248201527f417661696c61626c652073706163652063616e6e6f742065786365656420746f60448201527174616c206465636c6172656420737061636560701b6064820152608401610332565b3360008181526003602052604090819020600201839055517fecd70230663a54073e26a4d623db379b902b4124a9eabf78db52d7b1832043d3906103ff9084815260200190565b60405180910390a250565b60606000805b6004548110156104cb576003600060048381548110610431576104316113d9565b60009182526020808320909101546001600160a01b0316835282019290925260400190206007015460ff1680156104a657506000600360006004848154811061047c5761047c6113d9565b60009182526020808320909101546001600160a01b03168352820192909252604001902060020154115b156104b957816104b581611405565b9250505b806104c381611405565b915050610410565b5060008167ffffffffffffffff8111156104e7576104e7611068565b604051908082528060200260200182016040528015610510578160200160208202803683370190505b5090506000805b60045481101561062d576003600060048381548110610538576105386113d9565b60009182526020808320909101546001600160a01b0316835282019290925260400190206007015460ff1680156105ad575060006003600060048481548110610583576105836113d9565b60009182526020808320909101546001600160a01b03168352820192909252604001902060020154115b1561061b57600481815481106105c5576105c56113d9565b9060005260206000200160009054906101000a90046001600160a01b03168383815181106105f5576105f56113d9565b6001600160a01b03909216602092830291909101909101528161061781611405565b9250505b8061062581611405565b915050610517565b50909392505050565b336000908152600360205260409020546001600160a01b03161561069c5760405162461bcd60e51b815260206004820152601c60248201527f416c72656164792072656769737465726564206173206120686f7374000000006044820152606401610332565b600084116106ec5760405162461bcd60e51b815260206004820152601f60248201527f5370616365206d7573742062652067726561746572207468616e2030204742006044820152606401610332565b6000831161073c5760405162461bcd60e51b815260206004820152601c60248201527f5072696365206d7573742062652067726561746572207468616e2030000000006044820152606401610332565b81516002146107995760405162461bcd60e51b815260206004820152602360248201527f436f756e747279206d757374206265206120322d6c65747465722049534f20636044820152626f646560e81b6064820152608401610332565b6001543410156107eb5760405162461bcd60e51b815260206004820152601d60248201527f496e73756666696369656e74207365637572697479206465706f7369740000006044820152606401610332565b6040805161016081018252338082526020808301888152838501898152606085018981526080860189815260a087018990523460c0880152600160e088018190526032610100890152426101208901526000610140890181905296875260039586905297909520865181546001600160a01b0319166001600160a01b0390911617815592519683019690965551600282015593519084015551909190600482019061089690826114a7565b5060a0820151600582015560c0820151600682015560e082015160078201805491151560ff199092169190911790556101008201516008820155610120820151600982015561014090910151600a909101556004805460018101825560009182527f8a35acfbc15ff81a39ae7d344fd709f28e8600b4aa8c65c6b64bfe7fe36bd19b0180546001600160a01b03191633179055600280549161093783611405565b9190505550336001600160a01b03167f08edb807ee1eb6fbab97107ba4c44ec441dfe1b5ea5d8a4f3e172414386f12e78584604051610977929190611567565b60405180910390a250505050565b336000908152600360205260409020546001600160a01b03166109ba5760405162461bcd60e51b8152600401610332906113a2565b3360008181526003602052604080822060068101805460078301805460ff191690559084905591519093919283156108fc02918491818181858888f19350505050158015610a0c573d6000803e3d6000fd5b5060405133907fb5511432afb64936e71ff0ce93f34de99c071a454a19e68c062b500b9a7dea5790600090a25050565b6003602081905260009182526040909120805460018201546002830154938301546004840180546001600160a01b039094169592949293919291610a7f9061141e565b80601f0160208091040260200160405190810160405280929190818152602001828054610aab9061141e565b8015610af85780601f10610acd57610100808354040283529160200191610af8565b820191906000526020600020905b815481529060010190602001808311610adb57829003601f168201915b50505060058401546006850154600786015460088701546009880154600a909801549697939692955060ff909116935091908b565b610b9860405180610160016040528060006001600160a01b031681526020016000815260200160008152602001600081526020016060815260200160008019168152602001600081526020016000151581526020016000815260200160008152602001600081525090565b6001600160a01b03808316600090815260036020818152604092839020835161016081018552815490951685526001810154918501919091526002810154928401929092528101546060830152600481018054608084019190610bfa9061141e565b80601f0160208091040260200160405190810160405280929190818152602001828054610c269061141e565b8015610c735780601f10610c4857610100808354040283529160200191610c73565b820191906000526020600020905b815481529060010190602001808311610c5657829003601f168201915b50505091835250506005820154602082015260068201546040820152600782015460ff161515606082015260088201546080820152600982015460a0820152600a9091015460c09091015292915050565b6000546001600160a01b03163314610cee5760405162461bcd60e51b815260040161033290611588565b6001600160a01b0380841660009081526003602052604090208054909116610d495760405162461bcd60e51b815260206004820152600e60248201526d121bdcdd081b9bdd08199bdd5b9960921b6044820152606401610332565b8281600601541015610d9d5760405162461bcd60e51b815260206004820152601c60248201527f536c61736820616d6f756e742065786365656473206465706f736974000000006044820152606401610332565b82816006016000828254610db191906115c9565b9091555050600080546040516001600160a01b039091169185156108fc02918691818181858888f19350505050158015610def573d6000803e3d6000fd5b50600a816008015410610e1c57600a816008016000828254610e1191906115c9565b90915550610e249050565b600060088201555b836001600160a01b03167ff8a4a17c9b2d2f2313f6ebfa1f8b4578d650c4ad34eedcc6b307d3a4fc5fbb898484604051610977929190611567565b60048181548110610e6f57600080fd5b6000918252602090912001546001600160a01b0316905081565b6001600160a01b03811660009081526003602052604081206007015460ff168015610ecd57506001600160a01b038281166000908152600360205260409020541615155b92915050565b336000908152600360205260409020546001600160a01b0316610f085760405162461bcd60e51b8152600401610332906113a2565b336000908152600360205260409020600701805460ff1916911515919091179055565b6000546001600160a01b03163314610f555760405162461bcd60e51b815260040161033290611588565b6064811115610fa65760405162461bcd60e51b815260206004820152601f60248201527f53636f7265206d757374206265206265747765656e203020616e6420313030006044820152606401610332565b6001600160a01b03821660008181526003602052604090819020600801839055517ffc577563f1b9a0461e24abef1e1fcc0d33d3d881f20b5df6dda59de4aae2c82190610ff69084815260200190565b60405180910390a25050565b60006020828403121561101457600080fd5b5035919050565b6020808252825182820181905260009190848201906040850190845b8181101561105c5783516001600160a01b031683529284019291840191600101611037565b50909695505050505050565b634e487b7160e01b600052604160045260246000fd5b600082601f83011261108f57600080fd5b813567ffffffffffffffff808211156110aa576110aa611068565b604051601f8301601f19908116603f011681019082821181831017156110d2576110d2611068565b816040528381528660208588010111156110eb57600080fd5b836020870160208301376000602085830101528094505050505092915050565b6000806000806080858703121561112157600080fd5b8435935060208501359250604085013567ffffffffffffffff81111561114657600080fd5b6111528782880161107e565b949793965093946060013593505050565b80356001600160a01b038116811461117a57600080fd5b919050565b60006020828403121561119157600080fd5b61119a82611163565b9392505050565b6000815180845260005b818110156111c7576020818501810151868301820152016111ab565b506000602082860101526020601f19601f83011685010191505092915050565b600061016060018060a01b038e1683528c60208401528b60408401528a606084015280608084015261121b8184018b6111a1565b60a0840199909952505060c081019590955292151560e08501526101008401919091526101208301526101409091015295945050505050565b6020815261126e6020820183516001600160a01b03169052565b602082015160408201526040820151606082015260608201516080820152600060808301516101608060a08501526112aa6101808501836111a1565b915060a085015160c085015260c085015160e085015260e08501516101006112d58187018315159052565b86015161012086810191909152860151610140808701919091529095015193019290925250919050565b60008060006060848603121561131457600080fd5b61131d84611163565b925060208401359150604084013567ffffffffffffffff81111561134057600080fd5b61134c8682870161107e565b9150509250925092565b60006020828403121561136857600080fd5b8135801515811461119a57600080fd5b6000806040838503121561138b57600080fd5b61139483611163565b946020939093013593505050565b6020808252601d908201527f596f7520617265206e6f742061207265676973746572656420686f7374000000604082015260600190565b634e487b7160e01b600052603260045260246000fd5b634e487b7160e01b600052601160045260246000fd5b600060018201611417576114176113ef565b5060010190565b600181811c9082168061143257607f821691505b60208210810361145257634e487b7160e01b600052602260045260246000fd5b50919050565b601f8211156114a257600081815260208120601f850160051c8101602086101561147f5750805b601f850160051c820191505b8181101561149e5782815560010161148b565b5050505b505050565b815167ffffffffffffffff8111156114c1576114c1611068565b6114d5816114cf845461141e565b84611458565b602080601f83116001811461150a57600084156114f25750858301515b600019600386901b1c1916600185901b17855561149e565b600085815260208120601f198616915b828110156115395788860151825594840194600190910190840161151a565b50858210156115575787850151600019600388901b60f8161c191681555b5050505050600190811b01905550565b82815260406020820152600061158060408301846111a1565b949350505050565b60208082526021908201527f4f6e6c7920706c6174666f726d2061646d696e2063616e2063616c6c207468696040820152607360f81b606082015260800190565b81810381811115610ecd57610ecd6113ef56fea2646970667358221220645a487b16f9bcf69141815c2503f44b427db024c1b16eebc6c99c6b699dbff864736f6c63430008140033",
  "linkReferences": {},
  "deployedLinkReferences": {}
}