{
  "_format": "hh-sol-artifact-1",
  "contractName": "HeartbeatMonitor",
  "sourceName": "contracts/HeartbeatMonitor.sol",
  "abi": [
    {
      "inputs": [],
      "stateMutability": "nonpayable",
      "type": "constructor"
    },
    {
      "anonymous": false,
      "inputs": [
        {
          "indexed": true,
          "internalType": "address",
          "name": "host",
          "type": "address"
        },
        {
          "indexed": false,
          "internalType": "uint256",
          "name": "timestamp",
          "type": "uint256"
        },
        {
          "indexed": false,
          "internalType": "bytes32",
          "name": "merkleRoot",
          "type": "bytes32"
        }
      ],
      "name": "HeartbeatReceived",
      "type": "event"
    },
    {
      "anonymous": false,
      "inputs": [
        {
          "indexed": true,
          "internalType": "address",
          "name": "host",
          "type": "address"
        },
        {
          "indexed": false,
          "internalType": "uint256",
          "name": "missedCount",
          "type": "uint256"
        },
        {
          "indexed": false,
          "internalType": "uint256",
          "name": "timestamp",
          "type": "uint256"
        }
      ],
      "name": "HostDeclaredOffline",
      "type": "event"
    },
    {
      "anonymous": false,
      "inputs": [
        {
          "indexed": true,
          "internalType": "address",
          "name": "host",
          "type": "address"
        },
        {
          "indexed": false,
          "internalType": "uint256",
          "name": "timestamp",
          "type": "uint256"
        }
      ],
      "name": "HostRejoined",
      "type": "event"
    },
    {
      "anonymous": false,
      "inputs": [
        {
          "indexed": true,
          "internalType": "address",
          "name": "offlineHost",
          "type": "address"
        },
        {
          "indexed": false,
          "internalType": "uint256",
          "name": "timestamp",
          "type": "uint256"
        }
      ],
      "name": "ReplicationRequired",
      "type": "event"
    },
    {
      "inputs": [
        {
          "internalType": "address",
          "name": "_hostWallet",
          "type": "address"
        }
      ],
      "name": "checkHost",
      "outputs": [],
      "stateMutability": "nonpayable",
      "type": "function"
    },
    {
      "inputs": [
        {
          "internalType": "address",
          "name": "_hostWallet",
          "type": "address"
        }
      ],
      "name": "getHeartbeatRecord",
      "outputs": [
        {
          "components": [
            {
              "internalType": "address",
              "name": "hostWallet",
              "type": "address"
            },
            {
              "internalType": "uint256",
              "name": "lastHeartbeatTime",
              "type": "uint256"
            },
            {
              "internalType": "uint256",
              "name": "missedHeartbeats",
              "type": "uint256"
            },
            {
              "internalType": "bytes32",
              "name": "lastMerkleRoot",
              "type": "bytes32"
            },
            {
              "internalType": "bool",
              "name": "isOnline",
              "type": "bool"
            },
            {
              "internalType": "uint256",
              "name": "totalHeartbeats",
              "type": "uint256"
            },
            {
              "internalType": "uint256",
              "name": "uptimeStart",
              "type": "uint256"
            }
          ],
          "internalType": "struct HeartbeatMonitor.HeartbeatRecord",
          "name": "",
          "type": "tuple"
        }
      ],
      "stateMutability": "view",
      "type": "function"
    },
    {
      "inputs": [],
      "name": "getOfflineHosts",
      "outputs": [
        {
          "internalType": "address[]",
          "name": "",
          "type": "address[]"
        }
      ],
      "stateMutability": "view",
      "type": "function"
    },
    {
      "inputs": [
        {
          "internalType": "address",
          "name": "_hostWallet",
          "type": "address"
        }
      ],
      "name": "getTimeSinceLastHeartbeat",
      "outputs": [
        {
          "internalType": "uint256",
          "name": "",
          "type": "uint256"
        }
      ],
      "stateMutability": "view",
      "type": "function"
    },
    {
      "inputs": [
        {
          "internalType": "address",
          "name": "_hostWallet",
          "type": "address"
        }
      ],
      "name": "getUptimePercentage",
      "outputs": [
        {
          "internalType": "uint256",
          "name": "",
          "type": "uint256"
        }
      ],
      "stateMutability": "view",
      "type": "function"
    },
    {
      "inputs": [],
      "name": "heartbeatInterval",
      "outputs": [
        {
          "internalType": "uint256",
          "name": "",
          "type": "uint256"
        }
      ],
      "stateMutability": "view",
      "type": "function"
    },
    {
      "inputs": [
        {
          "internalType": "address",
          "name": "",
          "type": "address"
        }
      ],
      "name": "heartbeatRecords",
      "outputs": [
        {
          "internalType": "address",
          "name": "hostWallet",
          "type": "address"
        },
        {
          "internalType": "uint256",
          "name": "lastHeartbeatTime",
          "type": "uint256"
        },
        {
          "internalType": "uint256",
          "name": "missedHeartbeats",
          "type": "uint256"
        },
        {
          "internalType": "bytes32",
          "name": "lastMerkleRoot",
          "type": "bytes32"
        },
        {
          "internalType": "bool",
          "name": "isOnline",
          "type": "bool"
        },
        {
          "internalType": "uint256",
          "name": "totalHeartbeats",
          "type": "uint256"
        },
        {
          "internalType": "uint256",
          "name": "uptimeStart",
          "type": "uint256"
        }
      ],
      "stateMutability": "view",
      "type": "function"
    },
    {
      "inputs": [
        {
          "internalType": "address",
          "name": "_hostWallet",
          "type": "address"
        }
      ],
      "name": "isHostOnline",
      "outputs": [
        {
          "internalType": "bool",
          "name": "",
          "type": "bool"
        }
      ],
      "stateMutability": "view",
      "type": "function"
    },
    {
      "inputs": [],
      "name": "maxMissedHeartbeats",
      "outputs": [
        {
          "internalType": "uint256",
          "name": "",
          "type": "uint256"
        }
      ],
      "stateMutability": "view",
      "type": "function"
    },
    {
      "inputs": [
        {
          "internalType": "uint256",
          "name": "",
          "type": "uint256"
        }
      ],
      "name": "monitoredHosts",
      "outputs": [
        {
          "internalType": "address",
          "name": "",
          "type": "address"
        }
      ],
      "stateMutability": "view",
      "type": "function"
    },
    {
      "inputs": [],
      "name": "owner",
      "outputs": [
        {
          "internalType": "address",
          "name": "",
          "type": "address"
        }
      ],
      "stateMutability": "view",
      "type": "function"
    },
    {
      "inputs": [
        {
          "internalType": "bytes32",
          "name": "_merkleRoot",
          "type": "bytes32"
        }
      ],
      "name": "rejoinNetwork",
      "outputs": [],
      "stateMutability": "nonpayable",
      "type": "function"
    },
    {
      "inputs": [],
      "name": "slashAmountPerMiss",
      "outputs": [
        {
          "internalType": "uint256",
          "name": "",
          "type": "uint256"
        }
      ],
      "stateMutability": "view",
      "type": "function"
    },
    {
      "inputs": [
        {
          "internalType": "address",
          "name": "_hostWallet",
          "type": "address"
        }
      ],
      "name": "startMonitoring",
      "outputs": [],
      "stateMutability": "nonpayable",
      "type": "function"
    },
    {
      "inputs": [
        {
          "internalType": "bytes32",
          "name": "_merkleRoot",
          "type": "bytes32"
        }
      ],
      "name": "submitHeartbeat",
      "outputs": [],
      "stateMutability": "nonpayable",
      "type": "function"
    }
  ],
  "bytecode": "0x6080604052610e10600155600360025566038d7ea4c6800060035534801561002657600080fd5b50600080546001600160a01b03191633179055610d65806100486000396000f3fe608060405234801561001057600080fd5b50600436106100f55760003560e01c80638da5cb5b11610097578063e2cd4be611610066578063e2cd4be614610263578063e341031714610378578063eda555081461038b578063f1077e761461039e57600080fd5b80638da5cb5b14610178578063a36b523a146101a3578063cbfcfedf1461023d578063d276fd861461025057600080fd5b8063560cd522116100d3578063560cd5221461013e578063561a4fac146101515780636e44f8c81461015a57806374fef1441461016f57600080fd5b80630f2c9115146100fa5780632c15348e146101165780634c2097831461012b575b600080fd5b61010360035481565b6040519081526020015b60405180910390f35b610129610124366004610bf2565b6103c1565b005b610103610139366004610c0b565b6104b6565b61012961014c366004610c0b565b610566565b61010360015481565b6101626106fe565b60405161010d9190610c3b565b61010360025481565b60005461018b906001600160a01b031681565b6040516001600160a01b03909116815260200161010d565b6101fc6101b1366004610c0b565b600460208190526000918252604090912080546001820154600283015460038401549484015460058501546006909501546001600160a01b03909416959294919360ff909116919087565b604080516001600160a01b03909816885260208801969096529486019390935260608501919091521515608084015260a083015260c082015260e00161010d565b61012961024b366004610c0b565b610894565b61010361025e366004610c0b565b610a32565b61031c610271366004610c0b565b6040805160e081018252600080825260208201819052918101829052606081018290526080810182905260a0810182905260c0810191909152506001600160a01b03908116600090815260046020818152604092839020835160e081018552815490951685526001810154918501919091526002810154928401929092526003820154606084015281015460ff1615156080830152600581015460a08301526006015460c082015290565b60405161010d919081516001600160a01b0316815260208083015190820152604080830151908201526060808301519082015260808083015115159082015260a0828101519082015260c0918201519181019190915260e00190565b61018b610386366004610bf2565b610a5e565b610129610399366004610bf2565b610a88565b6103b16103ac366004610c0b565b610b86565b604051901515815260200161010d565b33600090815260046020526040902080546001600160a01b03166104375760405162461bcd60e51b815260206004820152602260248201527f486f7374206e6f74207265676973746572656420666f72206d6f6e69746f72696044820152616e6760f01b60648201526084015b60405180910390fd5b426001808301919091556000600283018190556003830184905560048301805460ff19169092179091556005820180549161047183610c9e565b9091555050604080514281526020810184905233917f9c500355e78f1ef1016434208453da1bceca9469e9913df7791259bfbfdbcafd91015b60405180910390a25050565b6001600160a01b038082166000908152600460205260408120805491929091166104e35750600092915050565b60008160060154426104f59190610cb7565b905080600003610509575060649392505050565b6000600154826105199190610cca565b90508060000361052e57506064949350505050565b60058301548181106105465750606495945050505050565b81610552826064610cec565b61055c9190610cca565b9695505050505050565b6000546001600160a01b031633146105b65760405162461bcd60e51b815260206004820152601360248201527227b7363c90383630ba3337b9369030b236b4b760691b604482015260640161042e565b6001600160a01b03818116600090815260046020526040902054161561061e5760405162461bcd60e51b815260206004820152601c60248201527f486f737420616c7265616479206265696e67206d6f6e69746f72656400000000604482015260640161042e565b6040805160e0810182526001600160a01b0392831680825242602080840182815260008587018181526060870182815260016080890181815260a08a0185815260c08b019889528986526004978890529a852099518a549c166001600160a01b03199c8d16178a55945189820155915160028901555160038801559151928601805493151560ff199094169390931790925594516005808601919091559151600690940193909355805493840181559091527f036b6384b5eca791c62761152d0c79bb0604c104a5fb6f4eb0703f3154bb3db09091018054909216179055565b60606000805b60055481101561077457600460006005838154811061072557610725610d03565b60009182526020808320909101546001600160a01b0316835282019290925260400190206004015460ff16610762578161075e81610c9e565b9250505b8061076c81610c9e565b915050610704565b5060008167ffffffffffffffff81111561079057610790610d19565b6040519080825280602002602001820160405280156107b9578160200160208202803683370190505b5090506000805b60055481101561088b5760046000600583815481106107e1576107e1610d03565b60009182526020808320909101546001600160a01b0316835282019290925260400190206004015460ff16610879576005818154811061082357610823610d03565b9060005260206000200160009054906101000a90046001600160a01b031683838151811061085357610853610d03565b6001600160a01b03909216602092830291909101909101528161087581610c9e565b9250505b8061088381610c9e565b9150506107c0565b50909392505050565b6000546001600160a01b031633146108e45760405162461bcd60e51b815260206004820152601360248201527227b7363c90383630ba3337b9369030b236b4b760691b604482015260640161042e565b6001600160a01b03808216600090815260046020526040902080549091166109435760405162461bcd60e51b8152602060048201526012602482015271121bdcdd081b9bdd081b5bdb9a5d1bdc995960721b604482015260640161042e565b60006001548260010154426109589190610cb7565b11905080801561096c5750600482015460ff165b15610a2d5760028201805490600061098383610c9e565b9190505550600254826002015410610a2d5760048201805460ff191690556002820154604080519182524260208301526001600160a01b038516917ff3d3eaa879d4060ad361c7afb2d4a61db4db43b7de56b5fc18f53c8a2375bb5e910160405180910390a2826001600160a01b03167f36c8d256ad66c5572f57ee682f13635daec490577d12d75ca1337fded837d0c342604051610a2491815260200190565b60405180910390a25b505050565b6001600160a01b038116600090815260046020526040812060010154610a589042610cb7565b92915050565b60058181548110610a6e57600080fd5b6000918252602090912001546001600160a01b0316905081565b33600090815260046020526040902080546001600160a01b0316610adf5760405162461bcd60e51b815260206004820152600e60248201526d139bdd081c9959da5cdd195c995960921b604482015260640161042e565b600481015460ff1615610b255760405162461bcd60e51b815260206004820152600e60248201526d416c7265616479206f6e6c696e6560901b604482015260640161042e565b60048101805460ff191660019081179091556000600283015542908201819055600382018390556006820181905560405133917f37387e149fce9849ded4775ef3324ed7b1d52c8559cf585e7d8fe9cfbc4ebbe5916104aa91815260200190565b6001600160a01b03808216600090815260046020526040812080549192909116610bb35750600092915050565b6000600254600154610bc59190610cec565b6001830154610bd49042610cb7565b60048401549110915060ff168015610bea575080155b949350505050565b600060208284031215610c0457600080fd5b5035919050565b600060208284031215610c1d57600080fd5b81356001600160a01b0381168114610c3457600080fd5b9392505050565b6020808252825182820181905260009190848201906040850190845b81811015610c7c5783516001600160a01b031683529284019291840191600101610c57565b50909695505050505050565b634e487b7160e01b600052601160045260246000fd5b600060018201610cb057610cb0610c88565b5060010190565b81810381811115610a5857610a58610c88565b600082610ce757634e487b7160e01b600052601260045260246000fd5b500490565b8082028115828204841417610a5857610a58610c88565b634e487b7160e01b600052603260045260246000fd5b634e487b7160e01b600052604160045260246000fdfea2646970667358221220e5765b837472da463c94ecee1c5d3eb359ea5b3427c8b4bf4ae2d696ce5e091164736f6c63430008140033",
  "linkReferences": {},
  "deployedLinkReferences": {}
}