{
  "_format": "hh-sol-artifact-1",
  "contractName": "FileRegistry",
  "sourceName": "contracts/FileRegistry.sol",
  "abi": [
    {
      "inputs": [],
      "stateMutability": "nonpayable",
      "type": "constructor"
    },
    {
      "anonymous": false,
      "inputs": [
        {
          "indexed": true,
          "internalType": "bytes32",
          "name": "fileId",
          "type": "bytes32"
        },
        {
          "indexed": false,
          "internalType": "uint8",
          "name": "chunkIndex",
          "type": "uint8"
        },
        {
          "indexed": false,
          "internalType": "address",
          "name": "newHost",
          "type": "address"
        }
      ],
      "name": "ChunkReassigned",
      "type": "event"
    },
    {
      "anonymous": false,
      "inputs": [
        {
          "indexed": true,
          "internalType": "bytes32",
          "name": "fileId",
          "type": "bytes32"
        },
        {
          "indexed": true,
          "internalType": "address",
          "name": "owner",
          "type": "address"
        }
      ],
      "name": "FileDeleted",
      "type": "event"
    },
    {
      "anonymous": false,
      "inputs": [
        {
          "indexed": true,
          "internalType": "bytes32",
          "name": "fileId",
          "type": "bytes32"
        },
        {
          "indexed": true,
          "internalType": "address",
          "name": "owner",
          "type": "address"
        },
        {
          "indexed": false,
          "internalType": "string",
          "name": "fileName",
          "type": "string"
        },
        {
          "indexed": false,
          "internalType": "uint256",
          "name": "sizeBytes",
          "type": "uint256"
        },
        {
          "indexed": false,
          "internalType": "uint256",
          "name": "totalChunks",
          "type": "uint256"
        }
      ],
      "name": "FileUploaded",
      "type": "event"
    },
    {
      "inputs": [
        {
          "internalType": "bytes32",
          "name": "_fileId",
          "type": "bytes32"
        }
      ],
      "name": "deleteFile",
      "outputs": [],
      "stateMutability": "nonpayable",
      "type": "function"
    },
    {
      "inputs": [
        {
          "internalType": "bytes32",
          "name": "",
          "type": "bytes32"
        }
      ],
      "name": "fileRecords",
      "outputs": [
        {
          "internalType": "bytes32",
          "name": "fileId",
          "type": "bytes32"
        },
        {
          "internalType": "address",
          "name": "owner",
          "type": "address"
        },
        {
          "internalType": "uint256",
          "name": "sizeBytes",
          "type": "uint256"
        },
        {
          "internalType": "uint8",
          "name": "totalChunks",
          "type": "uint8"
        },
        {
          "internalType": "uint8",
          "name": "dataChunks",
          "type": "uint8"
        },
        {
          "internalType": "string",
          "name": "fileName",
          "type": "string"
        },
        {
          "internalType": "uint256",
          "name": "uploadedAt",
          "type": "uint256"
        },
        {
          "internalType": "bool",
          "name": "isDeleted",
          "type": "bool"
        },
        {
          "internalType": "bytes",
          "name": "encryptedKeyData",
          "type": "bytes"
        }
      ],
      "stateMutability": "view",
      "type": "function"
    },
    {
      "inputs": [
        {
          "internalType": "bytes32",
          "name": "_fileId",
          "type": "bytes32"
        }
      ],
      "name": "getChunkHashes",
      "outputs": [
        {
          "internalType": "bytes32[]",
          "name": "",
          "type": "bytes32[]"
        }
      ],
      "stateMutability": "view",
      "type": "function"
    },
    {
      "inputs": [
        {
          "internalType": "bytes32",
          "name": "_fileId",
          "type": "bytes32"
        }
      ],
      "name": "getChunkLocations",
      "outputs": [
        {
          "internalType": "address[]",
          "name": "",
          "type": "address[]"
        }
      ],
      "stateMutability": "view",
      "type": "function"
    },
    {
      "inputs": [
        {
          "internalType": "bytes32",
          "name": "_fileId",
          "type": "bytes32"
        }
      ],
      "name": "getFile",
      "outputs": [
        {
          "components": [
            {
              "internalType": "bytes32",
              "name": "fileId",
              "type": "bytes32"
            },
            {
              "internalType": "address",
              "name": "owner",
              "type": "address"
            },
            {
              "internalType": "uint256",
              "name": "sizeBytes",
              "type": "uint256"
            },
            {
              "internalType": "uint8",
              "name": "totalChunks",
              "type": "uint8"
            },
            {
              "internalType": "uint8",
              "name": "dataChunks",
              "type": "uint8"
            },
            {
              "internalType": "bytes32[]",
              "name": "chunkHashes",
              "type": "bytes32[]"
            },
            {
              "internalType": "address[]",
              "name": "hostAssignments",
              "type": "address[]"
            },
            {
              "internalType": "string",
              "name": "fileName",
              "type": "string"
            },
            {
              "internalType": "uint256",
              "name": "uploadedAt",
              "type": "uint256"
            },
            {
              "internalType": "bool",
              "name": "isDeleted",
              "type": "bool"
            },
            {
              "internalType": "bytes",
              "name": "encryptedKeyData",
              "type": "bytes"
            }
          ],
          "internalType": "struct FileRegistry.FileRecord",
          "name": "",
          "type": "tuple"
        }
      ],
      "stateMutability": "view",
      "type": "function"
    },
    {
      "inputs": [
        {
          "internalType": "address",
          "name": "_userWallet",
          "type": "address"
        }
      ],
      "name": "getUserFiles",
      "outputs": [
        {
          "internalType": "bytes32[]",
          "name": "",
          "type": "bytes32[]"
        }
      ],
      "stateMutability": "view",
      "type": "function"
    },
    {
      "inputs": [],
      "name": "owner",
      "outputs": [
        {
          "internalType": "address",
          "name": "",
          "type": "address"
        }
      ],
      "stateMutability": "view",
      "type": "function"
    },
    {
      "inputs": [
        {
          "internalType": "bytes32",
          "name": "_fileId",
          "type": "bytes32"
        },
        {
          "internalType": "uint8",
          "name": "_chunkIndex",
          "type": "uint8"
        },
        {
          "internalType": "address",
          "name": "_newHost",
          "type": "address"
        }
      ],
      "name": "reassignChunk",
      "outputs": [],
      "stateMutability": "nonpayable",
      "type": "function"
    },
    {
      "inputs": [],
      "name": "totalFiles",
      "outputs": [
        {
          "internalType": "uint256",
          "name": "",
          "type": "uint256"
        }
      ],
      "stateMutability": "view",
      "type": "function"
    },
    {
      "inputs": [
        {
          "internalType": "bytes32",
          "name": "_fileId",
          "type": "bytes32"
        },
        {
          "internalType": "string",
          "name": "_fileName",
          "type": "string"
        },
        {
          "internalType": "uint256",
          "name": "_sizeBytes",
          "type": "uint256"
        },
        {
          "internalType": "uint8",
          "name": "_dataChunks",
          "type": "uint8"
        },
        {
          "internalType": "bytes32[]",
          "name": "_chunkHashes",
          "type": "bytes32[]"
        },
        {
          "internalType": "address[]",
          "name": "_hostAssignments",
          "type": "address[]"
        },
        {
          "internalType": "bytes",
          "name": "_encryptedKeyData",
          "type": "bytes"
        }
      ],
      "name": "uploadFileMap",
      "outputs": [],
      "stateMutability": "nonpayable",
      "type": "function"
    },
    {
      "inputs": [
        {
          "internalType": "address",
          "name": "",
          "type": "address"
        },
        {
          "internalType": "uint256",
          "name": "",
          "type": "uint256"
        }
      ],
      "name": "userFiles",
      "outputs": [
        {
          "internalType": "bytes32",
          "name": "",
          "type": "bytes32"
        }
      ],
      "stateMutability": "view",
      "type": "function"
    },
    {
      "inputs": [
        {
          "internalType": "bytes32",
          "name": "_fileId",
          "type": "bytes32"
        },
        {
          "internalType": "address",
          "name": "_claimant",
          "type": "address"
        }
      ],
      "name": "verifyOwnership",
      "outputs": [
        {
          "internalType": "bool",
          "name": "",
          "type": "bool"
        }
      ],
      "stateMutability": "view",
      "type": "function"
    }
  ],
  "bytecode": "0x608060405234801561001057600080fd5b50600080546001600160a01b031916331790556118d0806100326000396000f3fe608060405234801561001057600080fd5b50600436106100b45760003560e01c8063718f38a611610071578063718f38a61461016057806381db1e11146101815780638da5cb5b146101a157806392cf0557146101cc578063f55f07ad146101d5578063f762b9e7146101e857600080fd5b80630e284179146100b957806316cd9873146100ce5780631fc37922146100f7578063473aa2a51461010a5780634d41f49b1461012a5780636ab799f11461014d575b600080fd5b6100cc6100c7366004611288565b610210565b005b6100e16100dc366004611359565b6105e7565b6040516100ee9190611372565b60405180910390f35b6100e16101053660046113b6565b6106ba565b61011d610118366004611359565b610726565b6040516100ee919061148b565b61013d610138366004611583565b610a57565b60405190151581526020016100ee565b6100cc61015b366004611359565b610a9c565b61017361016e3660046115af565b610bd1565b6040519081526020016100ee565b61019461018f366004611359565b610c02565b6040516100ee91906115d9565b6000546101b4906001600160a01b031681565b6040516001600160a01b0390911681526020016100ee565b61017360015481565b6100cc6101e33660046115ec565b610cdd565b6101fb6101f6366004611359565b610e8b565b6040516100ee99989796959493929190611628565b6000878152600260205260409020600101546001600160a01b0316156102765760405162461bcd60e51b815260206004820152601660248201527546696c6520494420616c72656164792065786973747360501b60448201526064015b60405180910390fd5b81518351146102dc5760405162461bcd60e51b815260206004820152602c60248201527f4368756e6b2068617368657320616e6420686f73742061737369676e6d656e7460448201526b0e640daeae6e840dac2e8c6d60a31b606482015260840161026d565b600083511161032d5760405162461bcd60e51b815260206004820152601c60248201527f4d7573742068617665206174206c65617374206f6e65206368756e6b00000000604482015260640161026d565b6000851161037d5760405162461bcd60e51b815260206004820181905260248201527f46696c652073697a65206d7573742062652067726561746572207468616e2030604482015260640161026d565b60008460ff16118015610394575082518460ff1611155b6103e05760405162461bcd60e51b815260206004820152601860248201527f496e76616c69642064617461206368756e6b20636f756e740000000000000000604482015260640161026d565b604051806101600160405280888152602001336001600160a01b03168152602001868152602001845160ff1681526020018560ff16815260200184815260200183815260200187815260200142815260200160001515815260200182815250600260008981526020019081526020016000206000820151816000015560208201518160010160006101000a8154816001600160a01b0302191690836001600160a01b031602179055506040820151816002015560608201518160030160006101000a81548160ff021916908360ff16021790555060808201518160030160016101000a81548160ff021916908360ff16021790555060a08201518160040190805190602001906104f1929190610ffe565b5060c0820151805161050d916005840191602090910190611049565b5060e082015160068201906105229082611721565b50610100820151600782015561012082015160088201805460ff1916911515919091179055610140820151600982019061055c9082611721565b505033600090815260036020908152604082208054600181810183559184529183209091018a90558054925090610592836117e1565b9190505550336001600160a01b0316877fc517b8205e460fd330c9f237c93a015181ad19c69302fca3dd95b360b3955e2d888887516040516105d693929190611808565b60405180910390a350505050505050565b60008181526002602052604090206001015460609082906001600160a01b03166106235760405162461bcd60e51b815260040161026d9061182d565b60008181526002602052604090206008015460ff16156106555760405162461bcd60e51b815260040161026d90611855565b600083815260026020908152604091829020600401805483518184028101840190945280845290918301828280156106ac57602002820191906000526020600020905b815481526020019060010190808311610698575b505050505091505b50919050565b6001600160a01b03811660009081526003602090815260409182902080548351818402810184019094528084526060939283018282801561071a57602002820191906000526020600020905b815481526020019060010190808311610706575b50505050509050919050565b6107976040518061016001604052806000801916815260200160006001600160a01b0316815260200160008152602001600060ff168152602001600060ff16815260200160608152602001606081526020016060815260200160008152602001600015158152602001606081525090565b60008281526002602052604090206001015482906001600160a01b03166107d05760405162461bcd60e51b815260040161026d9061182d565b60008181526002602052604090206008015460ff16156108025760405162461bcd60e51b815260040161026d90611855565b6000838152600260208181526040928390208351610160810185528154815260018201546001600160a01b0316818401529281015483850152600381015460ff80821660608601526101009091041660808401526004810180548551818502810185019096528086529394919360a08601938301828280156108a357602002820191906000526020600020905b81548152602001906001019080831161088f575b505050505081526020016005820180548060200260200160405190810160405280929190818152602001828054801561090557602002820191906000526020600020905b81546001600160a01b031681526001909101906020018083116108e7575b5050505050815260200160068201805461091e9061169e565b80601f016020809104026020016040519081016040528092919081815260200182805461094a9061169e565b80156109975780601f1061096c57610100808354040283529160200191610997565b820191906000526020600020905b81548152906001019060200180831161097a57829003601f168201915b505050918352505060078201546020820152600882015460ff16151560408201526009820180546060909201916109cd9061169e565b80601f01602080910402602001604051908101604052809291908181526020018280546109f99061169e565b8015610a465780601f10610a1b57610100808354040283529160200191610a46565b820191906000526020600020905b815481529060010190602001808311610a2957829003601f168201915b505050505081525050915050919050565b6000828152600260205260408120600101546001600160a01b038381169116148015610a95575060008381526002602052604090206008015460ff16155b9392505050565b60008181526002602052604090206001015481906001600160a01b0316610ad55760405162461bcd60e51b815260040161026d9061182d565b60008181526002602052604090206008015460ff1615610b075760405162461bcd60e51b815260040161026d90611855565b60008281526002602052604090206001015482906001600160a01b03163314610b865760405162461bcd60e51b815260206004820152602b60248201527f4f6e6c79207468652066696c65206f776e65722063616e20706572666f726d2060448201526a3a3434b99030b1ba34b7b760a91b606482015260840161026d565b600083815260026020526040808220600801805460ff1916600117905551339185917fe9d807989e1b989644726a2599acb272adc7eeafbc532de494ba8ded059353519190a3505050565b60036020528160005260406000208181548110610bed57600080fd5b90600052602060002001600091509150505481565b60008181526002602052604090206001015460609082906001600160a01b0316610c3e5760405162461bcd60e51b815260040161026d9061182d565b60008181526002602052604090206008015460ff1615610c705760405162461bcd60e51b815260040161026d90611855565b600083815260026020908152604091829020600501805483518184028101840190945280845290918301828280156106ac57602002820191906000526020600020905b81546001600160a01b03168152600190910190602001808311610cb3575050505050915050919050565b6000546001600160a01b03163314610d2d5760405162461bcd60e51b815260206004820152601360248201527227b7363c90383630ba3337b9369030b236b4b760691b604482015260640161026d565b60008381526002602052604090206001015483906001600160a01b0316610d665760405162461bcd60e51b815260040161026d9061182d565b60008181526002602052604090206008015460ff1615610d985760405162461bcd60e51b815260040161026d90611855565b60008481526002602052604090206003015460ff90811690841610610df55760405162461bcd60e51b8152602060048201526013602482015272092dcecc2d8d2c840c6d0eadcd640d2dcc8caf606b1b604482015260640161026d565b6000848152600260205260409020600501805483919060ff8616908110610e1e57610e1e611884565b60009182526020918290200180546001600160a01b0319166001600160a01b039384161790556040805160ff871681529285169183019190915285917fd8373fb4838c57886f1b96bd3b6d95ebe4bc1545cd358dceeaa4f29775250cc1910160405180910390a250505050565b60026020819052600091825260409091208054600182015492820154600383015460068401805493956001600160a01b031694929360ff8084169461010090940416929190610ed99061169e565b80601f0160208091040260200160405190810160405280929190818152602001828054610f059061169e565b8015610f525780601f10610f2757610100808354040283529160200191610f52565b820191906000526020600020905b815481529060010190602001808311610f3557829003601f168201915b50505050600783015460088401546009850180549495929460ff909216935090610f7b9061169e565b80601f0160208091040260200160405190810160405280929190818152602001828054610fa79061169e565b8015610ff45780601f10610fc957610100808354040283529160200191610ff4565b820191906000526020600020905b815481529060010190602001808311610fd757829003601f168201915b5050505050905089565b828054828255906000526020600020908101928215611039579160200282015b8281111561103957825182559160200191906001019061101e565b5061104592915061109e565b5090565b828054828255906000526020600020908101928215611039579160200282015b8281111561103957825182546001600160a01b0319166001600160a01b03909116178255602090920191600190910190611069565b5b80821115611045576000815560010161109f565b634e487b7160e01b600052604160045260246000fd5b604051601f8201601f1916810167ffffffffffffffff811182821017156110f2576110f26110b3565b604052919050565b600082601f83011261110b57600080fd5b813567ffffffffffffffff811115611125576111256110b3565b611138601f8201601f19166020016110c9565b81815284602083860101111561114d57600080fd5b816020850160208301376000918101602001919091529392505050565b803560ff8116811461117b57600080fd5b919050565b600067ffffffffffffffff82111561119a5761119a6110b3565b5060051b60200190565b600082601f8301126111b557600080fd5b813560206111ca6111c583611180565b6110c9565b82815260059290921b840181019181810190868411156111e957600080fd5b8286015b8481101561120457803583529183019183016111ed565b509695505050505050565b80356001600160a01b038116811461117b57600080fd5b600082601f83011261123757600080fd5b813560206112476111c583611180565b82815260059290921b8401810191818101908684111561126657600080fd5b8286015b848110156112045761127b8161120f565b835291830191830161126a565b600080600080600080600060e0888a0312156112a357600080fd5b87359650602088013567ffffffffffffffff808211156112c257600080fd5b6112ce8b838c016110fa565b975060408a013596506112e360608b0161116a565b955060808a01359150808211156112f957600080fd5b6113058b838c016111a4565b945060a08a013591508082111561131b57600080fd5b6113278b838c01611226565b935060c08a013591508082111561133d57600080fd5b5061134a8a828b016110fa565b91505092959891949750929550565b60006020828403121561136b57600080fd5b5035919050565b6020808252825182820181905260009190848201906040850190845b818110156113aa5783518352928401929184019160010161138e565b50909695505050505050565b6000602082840312156113c857600080fd5b610a958261120f565b600081518084526020808501945080840160005b83811015611401578151875295820195908201906001016113e5565b509495945050505050565b600081518084526020808501945080840160005b838110156114015781516001600160a01b031687529582019590820190600101611420565b6000815180845260005b8181101561146b5760208185018101518683018201520161144f565b506000602082860101526020601f19601f83011685010191505092915050565b6020815281516020820152600060208301516114b260408401826001600160a01b03169052565b506040830151606083015260608301516114d1608084018260ff169052565b50608083015160ff811660a08401525060a08301516101608060c08501526114fd6101808501836113d1565b915060c0850151601f19808685030160e087015261151b848361140c565b935060e0870151915061010081878603018188015261153a8584611445565b908801516101208881019190915288015190945091506101406115608188018415159052565b8701518685039091018387015290506115798382611445565b9695505050505050565b6000806040838503121561159657600080fd5b823591506115a66020840161120f565b90509250929050565b600080604083850312156115c257600080fd5b6115cb8361120f565b946020939093013593505050565b602081526000610a95602083018461140c565b60008060006060848603121561160157600080fd5b833592506116116020850161116a565b915061161f6040850161120f565b90509250925092565b8981526001600160a01b03891660208201526040810188905260ff87811660608301528616608082015261012060a0820181905260009061166b83820188611445565b90508560c084015284151560e084015282810361010084015261168e8185611445565b9c9b505050505050505050505050565b600181811c908216806116b257607f821691505b6020821081036106b457634e487b7160e01b600052602260045260246000fd5b601f82111561171c57600081815260208120601f850160051c810160208610156116f95750805b601f850160051c820191505b8181101561171857828155600101611705565b5050505b505050565b815167ffffffffffffffff81111561173b5761173b6110b3565b61174f81611749845461169e565b846116d2565b602080601f831160018114611784576000841561176c5750858301515b600019600386901b1c1916600185901b178555611718565b600085815260208120601f198616915b828110156117b357888601518255948401946001909101908401611794565b50858210156117d15787850151600019600388901b60f8161c191681555b5050505050600190811b01905550565b60006001820161180157634e487b7160e01b600052601160045260246000fd5b5060010190565b60608152600061181b6060830186611445565b60208301949094525060400152919050565b6020808252600e908201526d119a5b19481b9bdd08199bdd5b9960921b604082015260600190565b602080825260159082015274119a5b19481a185cc81899595b8819195b195d1959605a1b604082015260600190565b634e487b7160e01b600052603260045260246000fdfea2646970667358221220e698b323777a6b5b7b13401700ff71fff538f03945649d2dd495b9c020d9b7f864736f6c63430008140033",
  "linkReferences": {},
  "deployedLinkReferences": {}
}