{
  "_format": "hh-sol-artifact-1",
  "contractName": "FileRegistry",
  "sourceName": "contracts/FileRegistry.sol",
  "abi": [
    {
      "inputs": [],
      "stateMutability": "nonpayable",
      "type": "constructor"
    },
    {
      "anonymous": false,
      "inputs": [
        {
          "indexed": true,
          "internalType": "bytes32",
          "name": "fileId",
          "type": "bytes32"
        },
        {
          "indexed": false,
          "internalType": "uint8",
          "name": "chunkIndex",
          "type": "uint8"
        },
        {
          "indexed": false,
          "internalType": "address",
          "name": "newHost",
          "type": "address"
        }
      ],
      "name": "ChunkReassigned",
      "type": "event"
    },
    {
      "anonymous": false,
      "inputs": [
        {
          "indexed": true,
          "internalType": "bytes32",
          "name": "fileId",
          "type": "bytes32"
        },
        {
          "indexed": true,
          "internalType": "address",
          "name": "owner",
          "type": "address"
        }
      ],
      "name": "FileDeleted",
      "type": "event"
    },
    {
      "anonymous": false,
      "inputs": [
        {
          "indexed": true,
          "internalType": "bytes32",
          "name": "fileId",
          "type": "bytes32"
        },
        {
          "indexed": true,
          "internalType": "address",
          "name": "owner",
          "type": "address"
        },
        {
          "indexed": false,
          "internalType": "uint256",
          "name": "deletedAt",
          "type": "uint256"
        }
      ],
      "name": "FileExpiredDeleted",
      "type": "event"
    },
    {
      "anonymous": false,
      "inputs": [
        {
          "indexed": true,
          "internalType": "bytes32",
          "name": "fileId",
          "type": "bytes32"
        },
        {
          "indexed": true,
          "internalType": "address",
          "name": "owner",
          "type": "address"
        },
        {
          "indexed": false,
          "internalType": "string",
          "name": "fileName",
          "type": "string"
        },
        {
          "indexed": false,
          "internalType": "uint256",
          "name": "sizeBytes",
          "type": "uint256"
        },
        {
          "indexed": false,
          "internalType": "uint256",
          "name": "totalChunks",
          "type": "uint256"
        }
      ],
      "name": "FileUploaded",
      "type": "event"
    },
    {
      "anonymous": false,
      "inputs": [
        {
          "indexed": true,
          "internalType": "bytes32",
          "name": "fileId",
          "type": "bytes32"
        },
        {
          "indexed": true,
          "internalType": "address",
          "name": "owner",
          "type": "address"
        },
        {
          "indexed": false,
          "internalType": "uint256",
          "name": "additionalMonths",
          "type": "uint256"
        },
        {
          "indexed": false,
          "internalType": "uint256",
          "name": "newExpiresAt",
          "type": "uint256"
        }
      ],
      "name": "SubscriptionRenewed",
      "type": "event"
    },
    {
      "inputs": [
        {
          "internalType": "uint256",
          "name": "",
          "type": "uint256"
        }
      ],
      "name": "allFileIds",
      "outputs": [
        {
          "internalType": "bytes32",
          "name": "",
          "type": "bytes32"
        }
      ],
      "stateMutability": "view",
      "type": "function"
    },
    {
      "inputs": [
        {
          "internalType": "bytes32",
          "name": "_fileId",
          "type": "bytes32"
        }
      ],
      "name": "deleteExpiredFile",
      "outputs": [],
      "stateMutability": "nonpayable",
      "type": "function"
    },
    {
      "inputs": [
        {
          "internalType": "bytes32",
          "name": "_fileId",
          "type": "bytes32"
        }
      ],
      "name": "deleteFile",
      "outputs": [],
      "stateMutability": "nonpayable",
      "type": "function"
    },
    {
      "inputs": [
        {
          "internalType": "bytes32",
          "name": "",
          "type": "bytes32"
        }
      ],
      "name": "fileRecords",
      "outputs": [
        {
          "internalType": "bytes32",
          "name": "fileId",
          "type": "bytes32"
        },
        {
          "internalType": "address",
          "name": "owner",
          "type": "address"
        },
        {
          "internalType": "uint256",
          "name": "sizeBytes",
          "type": "uint256"
        },
        {
          "internalType": "uint8",
          "name": "totalChunks",
          "type": "uint8"
        },
        {
          "internalType": "uint8",
          "name": "dataChunks",
          "type": "uint8"
        },
        {
          "internalType": "string",
          "name": "fileName",
          "type": "string"
        },
        {
          "internalType": "uint256",
          "name": "uploadedAt",
          "type": "uint256"
        },
        {
          "internalType": "bool",
          "name": "isDeleted",
          "type": "bool"
        },
        {
          "internalType": "bytes",
          "name": "encryptedKeyData",
          "type": "bytes"
        },
        {
          "internalType": "uint256",
          "name": "subscriptionMonths",
          "type": "uint256"
        },
        {
          "internalType": "uint256",
          "name": "storedGB",
          "type": "uint256"
        },
        {
          "internalType": "uint256",
          "name": "expiresAt",
          "type": "uint256"
        },
        {
          "internalType": "uint256",
          "name": "graceUntil",
          "type": "uint256"
        },
        {
          "internalType": "uint256",
          "name": "lastRenewalAt",
          "type": "uint256"
        }
      ],
      "stateMutability": "view",
      "type": "function"
    },
    {
      "inputs": [],
      "name": "getAllFileIds",
      "outputs": [
        {
          "internalType": "bytes32[]",
          "name": "",
          "type": "bytes32[]"
        }
      ],
      "stateMutability": "view",
      "type": "function"
    },
    {
      "inputs": [
        {
          "internalType": "bytes32",
          "name": "_fileId",
          "type": "bytes32"
        }
      ],
      "name": "getChunkHashes",
      "outputs": [
        {
          "internalType": "bytes32[]",
          "name": "",
          "type": "bytes32[]"
        }
      ],
      "stateMutability": "view",
      "type": "function"
    },
    {
      "inputs": [
        {
          "internalType": "bytes32",
          "name": "_fileId",
          "type": "bytes32"
        }
      ],
      "name": "getChunkLocations",
      "outputs": [
        {
          "internalType": "address[]",
          "name": "",
          "type": "address[]"
        }
      ],
      "stateMutability": "view",
      "type": "function"
    },
    {
      "inputs": [
        {
          "internalType": "bytes32",
          "name": "_fileId",
          "type": "bytes32"
        }
      ],
      "name": "getFile",
      "outputs": [
        {
          "components": [
            {
              "internalType": "bytes32",
              "name": "fileId",
              "type": "bytes32"
            },
            {
              "internalType": "address",
              "name": "owner",
              "type": "address"
            },
            {
              "internalType": "uint256",
              "name": "sizeBytes",
              "type": "uint256"
            },
            {
              "internalType": "uint8",
              "name": "totalChunks",
              "type": "uint8"
            },
            {
              "internalType": "uint8",
              "name": "dataChunks",
              "type": "uint8"
            },
            {
              "internalType": "bytes32[]",
              "name": "chunkHashes",
              "type": "bytes32[]"
            },
            {
              "internalType": "address[]",
              "name": "hostAssignments",
              "type": "address[]"
            },
            {
              "internalType": "string",
              "name": "fileName",
              "type": "string"
            },
            {
              "internalType": "uint256",
              "name": "uploadedAt",
              "type": "uint256"
            },
            {
              "internalType": "bool",
              "name": "isDeleted",
              "type": "bool"
            },
            {
              "internalType": "bytes",
              "name": "encryptedKeyData",
              "type": "bytes"
            },
            {
              "internalType": "uint256",
              "name": "subscriptionMonths",
              "type": "uint256"
            },
            {
              "internalType": "uint256",
              "name": "storedGB",
              "type": "uint256"
            },
            {
              "internalType": "uint256",
              "name": "expiresAt",
              "type": "uint256"
            },
            {
              "internalType": "uint256",
              "name": "graceUntil",
              "type": "uint256"
            },
            {
              "internalType": "uint256",
              "name": "lastRenewalAt",
              "type": "uint256"
            }
          ],
          "internalType": "struct FileRegistry.FileRecord",
          "name": "",
          "type": "tuple"
        }
      ],
      "stateMutability": "view",
      "type": "function"
    },
    {
      "inputs": [
        {
          "internalType": "address",
          "name": "_userWallet",
          "type": "address"
        }
      ],
      "name": "getUserFiles",
      "outputs": [
        {
          "internalType": "bytes32[]",
          "name": "",
          "type": "bytes32[]"
        }
      ],
      "stateMutability": "view",
      "type": "function"
    },
    {
      "inputs": [
        {
          "internalType": "bytes32",
          "name": "_fileId",
          "type": "bytes32"
        }
      ],
      "name": "isExpired",
      "outputs": [
        {
          "internalType": "bool",
          "name": "",
          "type": "bool"
        }
      ],
      "stateMutability": "view",
      "type": "function"
    },
    {
      "inputs": [
        {
          "internalType": "bytes32",
          "name": "_fileId",
          "type": "bytes32"
        }
      ],
      "name": "isInGrace",
      "outputs": [
        {
          "internalType": "bool",
          "name": "",
          "type": "bool"
        }
      ],
      "stateMutability": "view",
      "type": "function"
    },
    {
      "inputs": [],
      "name": "owner",
      "outputs": [
        {
          "internalType": "address",
          "name": "",
          "type": "address"
        }
      ],
      "stateMutability": "view",
      "type": "function"
    },
    {
      "inputs": [
        {
          "internalType": "bytes32",
          "name": "_fileId",
          "type": "bytes32"
        },
        {
          "internalType": "uint8",
          "name": "_chunkIndex",
          "type": "uint8"
        },
        {
          "internalType": "address",
          "name": "_newHost",
          "type": "address"
        }
      ],
      "name": "reassignChunk",
      "outputs": [],
      "stateMutability": "nonpayable",
      "type": "function"
    },
    {
      "inputs": [
        {
          "internalType": "bytes32",
          "name": "_fileId",
          "type": "bytes32"
        },
        {
          "internalType": "uint256",
          "name": "_additionalMonths",
          "type": "uint256"
        }
      ],
      "name": "renewSubscription",
      "outputs": [],
      "stateMutability": "nonpayable",
      "type": "function"
    },
    {
      "inputs": [],
      "name": "totalFiles",
      "outputs": [
        {
          "internalType": "uint256",
          "name": "",
          "type": "uint256"
        }
      ],
      "stateMutability": "view",
      "type": "function"
    },
    {
      "inputs": [
        {
          "internalType": "bytes32",
          "name": "_fileId",
          "type": "bytes32"
        },
        {
          "internalType": "string",
          "name": "_fileName",
          "type": "string"
        },
        {
          "internalType": "uint256",
          "name": "_sizeBytes",
          "type": "uint256"
        },
        {
          "internalType": "uint8",
          "name": "_dataChunks",
          "type": "uint8"
        },
        {
          "internalType": "bytes32[]",
          "name": "_chunkHashes",
          "type": "bytes32[]"
        },
        {
          "internalType": "address[]",
          "name": "_hostAssignments",
          "type": "address[]"
        },
        {
          "internalType": "bytes",
          "name": "_encryptedKeyData",
          "type": "bytes"
        },
        {
          "internalType": "uint256",
          "name": "_subscriptionMonths",
          "type": "uint256"
        },
        {
          "internalType": "uint256",
          "name": "_storedGB",
          "type": "uint256"
        }
      ],
      "name": "uploadFileMap",
      "outputs": [],
      "stateMutability": "nonpayable",
      "type": "function"
    },
    {
      "inputs": [
        {
          "internalType": "address",
          "name": "",
          "type": "address"
        },
        {
          "internalType": "uint256",
          "name": "",
          "type": "uint256"
        }
      ],
      "name": "userFiles",
      "outputs": [
        {
          "internalType": "bytes32",
          "name": "",
          "type": "bytes32"
        }
      ],
      "stateMutability": "view",
      "type": "function"
    },
    {
      "inputs": [
        {
          "internalType": "bytes32",
          "name": "_fileId",
          "type": "bytes32"
        },
        {
          "internalType": "address",
          "name": "_claimant",
          "type": "address"
        }
      ],
      "name": "verifyOwnership",
      "outputs": [
        {
          "internalType": "bool",
          "name": "",
          "type": "bool"
        }
      ],
      "stateMutability": "view",
      "type": "function"
    }
  ],
  "bytecode": "0x608060405234801561001057600080fd5b50600080546001600160a01b03191633179055612028806100326000396000f3fe608060405234801561001057600080fd5b50600436106101165760003560e01c80636db2feb2116100a25780638da5cb5b116100715780638da5cb5b1461025757806392cf055714610282578063b796d2091461028b578063f55f07ad1461029e578063f762b9e7146102b157600080fd5b80636db2feb2146101fe5780636ff1a60114610211578063718f38a61461022457806381db1e111461023757600080fd5b8063473aa2a5116100e9578063473aa2a5146101745780634d41f49b1461019457806357308e6e146101b75780636ab11dfa146101d85780636ab799f1146101eb57600080fd5b806302e0c0221461011b5780630ac9203a1461013957806316cd98731461014e5780631fc3792214610161575b600080fd5b6101236102de565b60405161013091906116e9565b60405180910390f35b61014c610147366004611902565b610336565b005b61012361015c3660046119e7565b610872565b61012361016f366004611a00565b610945565b6101876101823660046119e7565b6109b1565b6040516101309190611ad5565b6101a76101a2366004611c11565b610d37565b6040519015158152602001610130565b6101ca6101c53660046119e7565b610d7e565b604051908152602001610130565b6101a76101e63660046119e7565b610d9f565b61014c6101f93660046119e7565b610dcd565b6101a761020c3660046119e7565b610ebe565b61014c61021f3660046119e7565b610ef8565b6101ca610232366004611c3d565b611074565b61024a6102453660046119e7565b6110a5565b6040516101309190611c67565b60005461026a906001600160a01b031681565b6040516001600160a01b039091168152602001610130565b6101ca60015481565b61014c610299366004611c7a565b611180565b61014c6102ac366004611c9c565b6112f5565b6102c46102bf3660046119e7565b6114a3565b6040516101309e9d9c9b9a99989796959493929190611cd8565b6060600480548060200260200160405190810160405280929190818152602001828054801561032c57602002820191906000526020600020905b815481526020019060010190808311610318575b5050505050905090565b6000898152600260205260409020600101546001600160a01b03161561039c5760405162461bcd60e51b815260206004820152601660248201527546696c6520494420616c72656164792065786973747360501b60448201526064015b60405180910390fd5b83518551146104025760405162461bcd60e51b815260206004820152602c60248201527f4368756e6b2068617368657320616e6420686f73742061737369676e6d656e7460448201526b0e640daeae6e840dac2e8c6d60a31b6064820152608401610393565b60008551116104535760405162461bcd60e51b815260206004820152601c60248201527f4d7573742068617665206174206c65617374206f6e65206368756e6b000000006044820152606401610393565b600087116104a35760405162461bcd60e51b815260206004820181905260248201527f46696c652073697a65206d7573742062652067726561746572207468616e20306044820152606401610393565b60008660ff161180156104ba575084518660ff1611155b6105065760405162461bcd60e51b815260206004820152601860248201527f496e76616c69642064617461206368756e6b20636f756e7400000000000000006044820152606401610393565b600082116105655760405162461bcd60e51b815260206004820152602660248201527f537562736372697074696f6e206d6f6e746873206d757374206265206174206c60448201526565617374203160d01b6064820152608401610393565b600081116105b55760405162461bcd60e51b815260206004820152601c60248201527f53746f726564204742206d757374206265206174206c656173742031000000006044820152606401610393565b60006105c48362278d00611d8f565b6105ce9042611da6565b905060006105df8262278d00611da6565b90506040518061020001604052808c8152602001336001600160a01b031681526020018a8152602001885160ff1681526020018960ff1681526020018881526020018781526020018b81526020014281526020016000151581526020018681526020018581526020018481526020018381526020018281526020016000815250600260008d81526020019081526020016000206000820151816000015560208201518160010160006101000a8154816001600160a01b0302191690836001600160a01b031602179055506040820151816002015560608201518160030160006101000a81548160ff021916908360ff16021790555060808201518160030160016101000a81548160ff021916908360ff16021790555060a0820151816004019080519060200190610711929190611634565b5060c0820151805161072d91600584019160209091019061167f565b5060e082015160068201906107429082611e3c565b50610100820151600782015561012082015160088201805460ff1916911515919091179055610140820151600982019061077c9082611e3c565b50610160820151600a820155610180820151600b8201556101a0820151600c8201556101c0820151600d8201556101e090910151600e9091015533600090815260036020908152604082208054600181810183559184529183209091018d90556004805480830182559083527f8a35acfbc15ff81a39ae7d344fd709f28e8600b4aa8c65c6b64bfe7fe36bd19b018d905580549161081983611efc565b9190505550336001600160a01b03168b7fc517b8205e460fd330c9f237c93a015181ad19c69302fca3dd95b360b3955e2d8c8c8b5160405161085d93929190611f15565b60405180910390a35050505050505050505050565b60008181526002602052604090206001015460609082906001600160a01b03166108ae5760405162461bcd60e51b815260040161039390611f3a565b60008181526002602052604090206008015460ff16156108e05760405162461bcd60e51b815260040161039390611f62565b6000838152600260209081526040918290206004018054835181840281018401909452808452909183018282801561093757602002820191906000526020600020905b815481526020019060010190808311610923575b505050505091505b50919050565b6001600160a01b0381166000908152600360209081526040918290208054835181840281018401909452808452606093928301828280156109a557602002820191906000526020600020905b815481526020019060010190808311610991575b50505050509050919050565b610a456040518061020001604052806000801916815260200160006001600160a01b0316815260200160008152602001600060ff168152602001600060ff168152602001606081526020016060815260200160608152602001600081526020016000151581526020016060815260200160008152602001600081526020016000815260200160008152602001600081525090565b60008281526002602052604090206001015482906001600160a01b0316610a7e5760405162461bcd60e51b815260040161039390611f3a565b60008181526002602052604090206008015460ff1615610ab05760405162461bcd60e51b815260040161039390611f62565b6000838152600260208181526040928390208351610200810185528154815260018201546001600160a01b0316818401529281015483850152600381015460ff80821660608601526101009091041660808401526004810180548551818502810185019096528086529394919360a0860193830182828015610b5157602002820191906000526020600020905b815481526020019060010190808311610b3d575b5050505050815260200160058201805480602002602001604051908101604052809291908181526020018280548015610bb357602002820191906000526020600020905b81546001600160a01b03168152600190910190602001808311610b95575b50505050508152602001600682018054610bcc90611db9565b80601f0160208091040260200160405190810160405280929190818152602001828054610bf890611db9565b8015610c455780601f10610c1a57610100808354040283529160200191610c45565b820191906000526020600020905b815481529060010190602001808311610c2857829003601f168201915b505050918352505060078201546020820152600882015460ff1615156040820152600982018054606090920191610c7b90611db9565b80601f0160208091040260200160405190810160405280929190818152602001828054610ca790611db9565b8015610cf45780601f10610cc957610100808354040283529160200191610cf4565b820191906000526020600020905b815481529060010190602001808311610cd757829003601f168201915b50505050508152602001600a8201548152602001600b8201548152602001600c8201548152602001600d8201548152602001600e82015481525050915050919050565b6000828152600260205260408120600101546001600160a01b038381169116148015610d75575060008381526002602052604090206008015460ff16155b90505b92915050565b60048181548110610d8e57600080fd5b600091825260209091200154905081565b6000818152600260205260408120610db683610ebe565b8015610dc6575080600d01544211155b9392505050565b60008181526002602052604090206001015481906001600160a01b0316610e065760405162461bcd60e51b815260040161039390611f3a565b60008181526002602052604090206008015460ff1615610e385760405162461bcd60e51b815260040161039390611f62565b60008281526002602052604090206001015482906001600160a01b03163314610e735760405162461bcd60e51b815260040161039390611f91565b600083815260026020526040808220600801805460ff1916600117905551339185917fe9d807989e1b989644726a2599acb272adc7eeafbc532de494ba8ded059353519190a3505050565b6000818152600260205260408120600881015460ff16158015610ee55750600081600c0154115b8015610dc65750600c0154421192915050565b6000546001600160a01b03163314610f485760405162461bcd60e51b815260206004820152601360248201527227b7363c90383630ba3337b9369030b236b4b760691b6044820152606401610393565b600081815260026020526040902060018101546001600160a01b0316610f805760405162461bcd60e51b815260040161039390611f3a565b600881015460ff1615610fc75760405162461bcd60e51b815260206004820152600f60248201526e105b1c9958591e4819195b195d1959608a1b6044820152606401610393565b80600d0154421161101a5760405162461bcd60e51b815260206004820152601e60248201527f477261636520706572696f6420686173206e6f7420656e6465642079657400006044820152606401610393565b60088101805460ff191660019081179091558101546040514281526001600160a01b039091169083907f7046de9a8d5b3ebc4a2748d386117c1da4a7702ff2b524ef8a0cba0cf35429ed9060200160405180910390a35050565b6003602052816000526040600020818154811061109057600080fd5b90600052602060002001600091509150505481565b60008181526002602052604090206001015460609082906001600160a01b03166110e15760405162461bcd60e51b815260040161039390611f3a565b60008181526002602052604090206008015460ff16156111135760405162461bcd60e51b815260040161039390611f62565b6000838152600260209081526040918290206005018054835181840281018401909452808452909183018282801561093757602002820191906000526020600020905b81546001600160a01b03168152600190910190602001808311611156575050505050915050919050565b60008281526002602052604090206001015482906001600160a01b031633146111bb5760405162461bcd60e51b815260040161039390611f91565b6000821161120b5760405162461bcd60e51b815260206004820152601f60248201527f4d7573742072656e657720666f72206174206c656173742031206d6f6e7468006044820152606401610393565b6000838152600260205260409020600881015460ff161561123e5760405162461bcd60e51b815260040161039390611f62565b600081600c015442116112555781600c0154611257565b425b90506112668462278d00611d8f565b6112709082611da6565b600c83018190556112849062278d00611da6565b82600d01819055508382600a0160008282546112a09190611da6565b909155505042600e830155600c820154604080518681526020810192909252339187917f314f844b24c9155f7dc01fd863f0c73a8c9531a4065d3a9671b660ae3e2593e0910160405180910390a35050505050565b6000546001600160a01b031633146113455760405162461bcd60e51b815260206004820152601360248201527227b7363c90383630ba3337b9369030b236b4b760691b6044820152606401610393565b60008381526002602052604090206001015483906001600160a01b031661137e5760405162461bcd60e51b815260040161039390611f3a565b60008181526002602052604090206008015460ff16156113b05760405162461bcd60e51b815260040161039390611f62565b60008481526002602052604090206003015460ff9081169084161061140d5760405162461bcd60e51b8152602060048201526013602482015272092dcecc2d8d2c840c6d0eadcd640d2dcc8caf606b1b6044820152606401610393565b6000848152600260205260409020600501805483919060ff861690811061143657611436611fdc565b60009182526020918290200180546001600160a01b0319166001600160a01b039384161790556040805160ff871681529285169183019190915285917fd8373fb4838c57886f1b96bd3b6d95ebe4bc1545cd358dceeaa4f29775250cc1910160405180910390a250505050565b60026020819052600091825260409091208054600182015492820154600383015460068401805493956001600160a01b031694929360ff80841694610100909404169291906114f190611db9565b80601f016020809104026020016040519081016040528092919081815260200182805461151d90611db9565b801561156a5780601f1061153f5761010080835404028352916020019161156a565b820191906000526020600020905b81548152906001019060200180831161154d57829003601f168201915b50505050600783015460088401546009850180549495929460ff90921693509061159390611db9565b80601f01602080910402602001604051908101604052809291908181526020018280546115bf90611db9565b801561160c5780601f106115e15761010080835404028352916020019161160c565b820191906000526020600020905b8154815290600101906020018083116115ef57829003601f168201915b50505050509080600a01549080600b01549080600c01549080600d01549080600e015490508e565b82805482825590600052602060002090810192821561166f579160200282015b8281111561166f578251825591602001919060010190611654565b5061167b9291506116d4565b5090565b82805482825590600052602060002090810192821561166f579160200282015b8281111561166f57825182546001600160a01b0319166001600160a01b0390911617825560209092019160019091019061169f565b5b8082111561167b57600081556001016116d5565b6020808252825182820181905260009190848201906040850190845b8181101561172157835183529284019291840191600101611705565b50909695505050505050565b634e487b7160e01b600052604160045260246000fd5b604051601f8201601f1916810167ffffffffffffffff8111828210171561176c5761176c61172d565b604052919050565b600082601f83011261178557600080fd5b813567ffffffffffffffff81111561179f5761179f61172d565b6117b2601f8201601f1916602001611743565b8181528460208386010111156117c757600080fd5b816020850160208301376000918101602001919091529392505050565b803560ff811681146117f557600080fd5b919050565b600067ffffffffffffffff8211156118145761181461172d565b5060051b60200190565b600082601f83011261182f57600080fd5b8135602061184461183f836117fa565b611743565b82815260059290921b8401810191818101908684111561186357600080fd5b8286015b8481101561187e5780358352918301918301611867565b509695505050505050565b80356001600160a01b03811681146117f557600080fd5b600082601f8301126118b157600080fd5b813560206118c161183f836117fa565b82815260059290921b840181019181810190868411156118e057600080fd5b8286015b8481101561187e576118f581611889565b83529183019183016118e4565b60008060008060008060008060006101208a8c03121561192157600080fd5b8935985060208a013567ffffffffffffffff8082111561194057600080fd5b61194c8d838e01611774565b995060408c0135985061196160608d016117e4565b975060808c013591508082111561197757600080fd5b6119838d838e0161181e565b965060a08c013591508082111561199957600080fd5b6119a58d838e016118a0565b955060c08c01359150808211156119bb57600080fd5b506119c88c828d01611774565b93505060e08a013591506101008a013590509295985092959850929598565b6000602082840312156119f957600080fd5b5035919050565b600060208284031215611a1257600080fd5b610d7582611889565b600081518084526020808501945080840160005b83811015611a4b57815187529582019590820190600101611a2f565b509495945050505050565b600081518084526020808501945080840160005b83811015611a4b5781516001600160a01b031687529582019590820190600101611a6a565b6000815180845260005b81811015611ab557602081850181015186830182015201611a99565b506000602082860101526020601f19601f83011685010191505092915050565b602081528151602082015260006020830151611afc60408401826001600160a01b03169052565b50604083015160608301526060830151611b1b608084018260ff169052565b50608083015160ff811660a08401525060a08301516102008060c0850152611b47610220850183611a1b565b915060c0850151601f19808685030160e0870152611b658483611a56565b935060e08701519150610100818786030181880152611b848584611a8f565b90880151610120888101919091528801519094509150610140611baa8188018415159052565b80880151925050610160818786030181880152611bc78584611a8f565b90880151610180888101919091528801516101a0808901919091528801516101c0808901919091528801516101e08089019190915290970151929095019190915250929392505050565b60008060408385031215611c2457600080fd5b82359150611c3460208401611889565b90509250929050565b60008060408385031215611c5057600080fd5b611c5983611889565b946020939093013593505050565b602081526000610d756020830184611a56565b60008060408385031215611c8d57600080fd5b50508035926020909101359150565b600080600060608486031215611cb157600080fd5b83359250611cc1602085016117e4565b9150611ccf60408501611889565b90509250925092565b8e81526001600160a01b038e166020820152604081018d905260ff8c16606082015260ff8b1660808201526101c060a08201526000611d1b6101c083018c611a8f565b8a60c0840152611d2f60e084018b15159052565b828103610100840152611d42818a611a8f565b61012084019890985250506101408101949094526101608401929092526101808301526101a0909101529998505050505050505050565b634e487b7160e01b600052601160045260246000fd5b8082028115828204841417610d7857610d78611d79565b80820180821115610d7857610d78611d79565b600181811c90821680611dcd57607f821691505b60208210810361093f57634e487b7160e01b600052602260045260246000fd5b601f821115611e3757600081815260208120601f850160051c81016020861015611e145750805b601f850160051c820191505b81811015611e3357828155600101611e20565b5050505b505050565b815167ffffffffffffffff811115611e5657611e5661172d565b611e6a81611e648454611db9565b84611ded565b602080601f831160018114611e9f5760008415611e875750858301515b600019600386901b1c1916600185901b178555611e33565b600085815260208120601f198616915b82811015611ece57888601518255948401946001909101908401611eaf565b5085821015611eec5787850151600019600388901b60f8161c191681555b5050505050600190811b01905550565b600060018201611f0e57611f0e611d79565b5060010190565b606081526000611f286060830186611a8f565b60208301949094525060400152919050565b6020808252600e908201526d119a5b19481b9bdd08199bdd5b9960921b604082015260600190565b602080825260159082015274119a5b19481a185cc81899595b8819195b195d1959605a1b604082015260600190565b6020808252602b908201527f4f6e6c79207468652066696c65206f776e65722063616e20706572666f726d2060408201526a3a3434b99030b1ba34b7b760a91b606082015260800190565b634e487b7160e01b600052603260045260246000fdfea264697066735822122021e44da8a2b0c2dd575b27672dc2303d64cde0d29beb4f99177a5fad66b873e264736f6c63430008140033",
  "linkReferences": {},
  "deployedLinkReferences": {}
}