{
  "_format": "hh-sol-artifact-1",
  "contractName": "PaymentLedger",
  "sourceName": "contracts/PaymentLedger.sol",
  "abi": [
    {
      "inputs": [],
      "stateMutability": "nonpayable",
      "type": "constructor"
    },
    {
      "anonymous": false,
      "inputs": [
        {
          "indexed": true,
          "internalType": "address",
          "name": "renter",
          "type": "address"
        },
        {
          "indexed": false,
          "internalType": "uint256",
          "name": "amount",
          "type": "uint256"
        }
      ],
      "name": "CreditAdded",
      "type": "event"
    },
    {
      "anonymous": false,
      "inputs": [
        {
          "indexed": true,
          "internalType": "address",
          "name": "host",
          "type": "address"
        },
        {
          "indexed": false,
          "internalType": "uint256",
          "name": "amount",
          "type": "uint256"
        },
        {
          "indexed": false,
          "internalType": "uint256",
          "name": "newTotal",
          "type": "uint256"
        }
      ],
      "name": "EarningsAccrued",
      "type": "event"
    },
    {
      "anonymous": false,
      "inputs": [
        {
          "indexed": true,
          "internalType": "address",
          "name": "host",
          "type": "address"
        },
        {
          "indexed": false,
          "internalType": "uint256",
          "name": "amount",
          "type": "uint256"
        },
        {
          "indexed": false,
          "internalType": "uint256",
          "name": "paymentId",
          "type": "uint256"
        }
      ],
      "name": "PaymentDue",
      "type": "event"
    },
    {
      "anonymous": false,
      "inputs": [
        {
          "indexed": true,
          "internalType": "uint256",
          "name": "paymentId",
          "type": "uint256"
        },
        {
          "indexed": true,
          "internalType": "address",
          "name": "host",
          "type": "address"
        },
        {
          "indexed": false,
          "internalType": "string",
          "name": "transactionRef",
          "type": "string"
        }
      ],
      "name": "PaymentSettled",
      "type": "event"
    },
    {
      "anonymous": false,
      "inputs": [
        {
          "indexed": false,
          "internalType": "uint256",
          "name": "amount",
          "type": "uint256"
        },
        {
          "indexed": false,
          "internalType": "uint256",
          "name": "newPendingTotal",
          "type": "uint256"
        }
      ],
      "name": "PlatformEarned",
      "type": "event"
    },
    {
      "anonymous": false,
      "inputs": [
        {
          "indexed": true,
          "internalType": "address",
          "name": "renter",
          "type": "address"
        },
        {
          "indexed": false,
          "internalType": "uint256",
          "name": "remainingBalance",
          "type": "uint256"
        }
      ],
      "name": "RenterLowBalance",
      "type": "event"
    },
    {
      "anonymous": false,
      "inputs": [
        {
          "indexed": true,
          "internalType": "address",
          "name": "renter",
          "type": "address"
        },
        {
          "indexed": true,
          "internalType": "address",
          "name": "host",
          "type": "address"
        },
        {
          "indexed": false,
          "internalType": "uint256",
          "name": "amount",
          "type": "uint256"
        },
        {
          "indexed": false,
          "internalType": "bytes32",
          "name": "fileId",
          "type": "bytes32"
        }
      ],
      "name": "StorageCharged",
      "type": "event"
    },
    {
      "inputs": [],
      "name": "HOST_RATE_CENTS",
      "outputs": [
        {
          "internalType": "uint256",
          "name": "",
          "type": "uint256"
        }
      ],
      "stateMutability": "view",
      "type": "function"
    },
    {
      "inputs": [],
      "name": "PLATFORM_RATE_CENTS",
      "outputs": [
        {
          "internalType": "uint256",
          "name": "",
          "type": "uint256"
        }
      ],
      "stateMutability": "view",
      "type": "function"
    },
    {
      "inputs": [],
      "name": "RENTER_RATE_CENTS",
      "outputs": [
        {
          "internalType": "uint256",
          "name": "",
          "type": "uint256"
        }
      ],
      "stateMutability": "view",
      "type": "function"
    },
    {
      "inputs": [
        {
          "internalType": "address",
          "name": "_renter",
          "type": "address"
        },
        {
          "internalType": "uint256",
          "name": "_amount",
          "type": "uint256"
        }
      ],
      "name": "addCredit",
      "outputs": [],
      "stateMutability": "nonpayable",
      "type": "function"
    },
    {
      "inputs": [
        {
          "internalType": "address",
          "name": "_renter",
          "type": "address"
        },
        {
          "internalType": "address",
          "name": "_host",
          "type": "address"
        },
        {
          "internalType": "uint256",
          "name": "_amount",
          "type": "uint256"
        },
        {
          "internalType": "bytes32",
          "name": "_fileId",
          "type": "bytes32"
        }
      ],
      "name": "chargeStorageUsage",
      "outputs": [],
      "stateMutability": "nonpayable",
      "type": "function"
    },
    {
      "inputs": [
        {
          "internalType": "uint256",
          "name": "_paymentId",
          "type": "uint256"
        },
        {
          "internalType": "string",
          "name": "_transactionRef",
          "type": "string"
        }
      ],
      "name": "confirmSettlement",
      "outputs": [],
      "stateMutability": "nonpayable",
      "type": "function"
    },
    {
      "inputs": [],
      "name": "getAllHosts",
      "outputs": [
        {
          "internalType": "address[]",
          "name": "",
          "type": "address[]"
        }
      ],
      "stateMutability": "view",
      "type": "function"
    },
    {
      "inputs": [],
      "name": "getAllRenters",
      "outputs": [
        {
          "internalType": "address[]",
          "name": "",
          "type": "address[]"
        }
      ],
      "stateMutability": "view",
      "type": "function"
    },
    {
      "inputs": [
        {
          "internalType": "address",
          "name": "_hostWallet",
          "type": "address"
        }
      ],
      "name": "getHostEarnings",
      "outputs": [
        {
          "components": [
            {
              "internalType": "address",
              "name": "hostWallet",
              "type": "address"
            },
            {
              "internalType": "uint256",
              "name": "accruedAmount",
              "type": "uint256"
            },
            {
              "internalType": "uint256",
              "name": "totalLifetimeEarned",
              "type": "uint256"
            },
            {
              "internalType": "uint256",
              "name": "lastSettlementTime",
              "type": "uint256"
            },
            {
              "internalType": "bool",
              "name": "payoutEnabled",
              "type": "bool"
            }
          ],
          "internalType": "struct PaymentLedger.HostEarnings",
          "name": "",
          "type": "tuple"
        }
      ],
      "stateMutability": "view",
      "type": "function"
    },
    {
      "inputs": [
        {
          "internalType": "uint256",
          "name": "_paymentId",
          "type": "uint256"
        }
      ],
      "name": "getPaymentRecord",
      "outputs": [
        {
          "components": [
            {
              "internalType": "uint256",
              "name": "id",
              "type": "uint256"
            },
            {
              "internalType": "address",
              "name": "recipient",
              "type": "address"
            },
            {
              "internalType": "uint256",
              "name": "amount",
              "type": "uint256"
            },
            {
              "internalType": "uint256",
              "name": "timestamp",
              "type": "uint256"
            },
            {
              "internalType": "string",
              "name": "transactionRef",
              "type": "string"
            },
            {
              "internalType": "bool",
              "name": "settled",
              "type": "bool"
            }
          ],
          "internalType": "struct PaymentLedger.PaymentRecord",
          "name": "",
          "type": "tuple"
        }
      ],
      "stateMutability": "view",
      "type": "function"
    },
    {
      "inputs": [
        {
          "internalType": "address",
          "name": "_renterWallet",
          "type": "address"
        }
      ],
      "name": "getRenterBalance",
      "outputs": [
        {
          "internalType": "uint256",
          "name": "",
          "type": "uint256"
        }
      ],
      "stateMutability": "view",
      "type": "function"
    },
    {
      "inputs": [
        {
          "internalType": "address",
          "name": "",
          "type": "address"
        }
      ],
      "name": "hostEarnings",
      "outputs": [
        {
          "internalType": "address",
          "name": "hostWallet",
          "type": "address"
        },
        {
          "internalType": "uint256",
          "name": "accruedAmount",
          "type": "uint256"
        },
        {
          "internalType": "uint256",
          "name": "totalLifetimeEarned",
          "type": "uint256"
        },
        {
          "internalType": "uint256",
          "name": "lastSettlementTime",
          "type": "uint256"
        },
        {
          "internalType": "bool",
          "name": "payoutEnabled",
          "type": "bool"
        }
      ],
      "stateMutability": "view",
      "type": "function"
    },
    {
      "inputs": [],
      "name": "owner",
      "outputs": [
        {
          "internalType": "address",
          "name": "",
          "type": "address"
        }
      ],
      "stateMutability": "view",
      "type": "function"
    },
    {
      "inputs": [
        {
          "internalType": "uint256",
          "name": "",
          "type": "uint256"
        }
      ],
      "name": "paymentRecords",
      "outputs": [
        {
          "internalType": "uint256",
          "name": "id",
          "type": "uint256"
        },
        {
          "internalType": "address",
          "name": "recipient",
          "type": "address"
        },
        {
          "internalType": "uint256",
          "name": "amount",
          "type": "uint256"
        },
        {
          "internalType": "uint256",
          "name": "timestamp",
          "type": "uint256"
        },
        {
          "internalType": "string",
          "name": "transactionRef",
          "type": "string"
        },
        {
          "internalType": "bool",
          "name": "settled",
          "type": "bool"
        }
      ],
      "stateMutability": "view",
      "type": "function"
    },
    {
      "inputs": [],
      "name": "pendingPlatformEarnings",
      "outputs": [
        {
          "internalType": "uint256",
          "name": "",
          "type": "uint256"
        }
      ],
      "stateMutability": "view",
      "type": "function"
    },
    {
      "inputs": [],
      "name": "platformWallet",
      "outputs": [
        {
          "internalType": "address",
          "name": "",
          "type": "address"
        }
      ],
      "stateMutability": "view",
      "type": "function"
    },
    {
      "inputs": [
        {
          "internalType": "address",
          "name": "_hostWallet",
          "type": "address"
        }
      ],
      "name": "registerHost",
      "outputs": [],
      "stateMutability": "nonpayable",
      "type": "function"
    },
    {
      "inputs": [
        {
          "internalType": "uint256",
          "name": "",
          "type": "uint256"
        }
      ],
      "name": "registeredHosts",
      "outputs": [
        {
          "internalType": "address",
          "name": "",
          "type": "address"
        }
      ],
      "stateMutability": "view",
      "type": "function"
    },
    {
      "inputs": [
        {
          "internalType": "uint256",
          "name": "",
          "type": "uint256"
        }
      ],
      "name": "registeredRenters",
      "outputs": [
        {
          "internalType": "address",
          "name": "",
          "type": "address"
        }
      ],
      "stateMutability": "view",
      "type": "function"
    },
    {
      "inputs": [
        {
          "internalType": "address",
          "name": "",
          "type": "address"
        }
      ],
      "name": "renterAccounts",
      "outputs": [
        {
          "internalType": "address",
          "name": "renterWallet",
          "type": "address"
        },
        {
          "internalType": "uint256",
          "name": "creditBalance",
          "type": "uint256"
        },
        {
          "internalType": "uint256",
          "name": "totalSpent",
          "type": "uint256"
        },
        {
          "internalType": "uint256",
          "name": "lastBillingTime",
          "type": "uint256"
        }
      ],
      "stateMutability": "view",
      "type": "function"
    },
    {
      "inputs": [
        {
          "internalType": "address",
          "name": "_hostWallet",
          "type": "address"
        },
        {
          "internalType": "bool",
          "name": "_enabled",
          "type": "bool"
        }
      ],
      "name": "setPayoutEnabled",
      "outputs": [],
      "stateMutability": "nonpayable",
      "type": "function"
    },
    {
      "inputs": [
        {
          "internalType": "address",
          "name": "_newWallet",
          "type": "address"
        }
      ],
      "name": "setPlatformWallet",
      "outputs": [],
      "stateMutability": "nonpayable",
      "type": "function"
    },
    {
      "inputs": [],
      "name": "settlementThreshold",
      "outputs": [
        {
          "internalType": "uint256",
          "name": "",
          "type": "uint256"
        }
      ],
      "stateMutability": "view",
      "type": "function"
    },
    {
      "inputs": [],
      "name": "totalPaymentsCount",
      "outputs": [
        {
          "internalType": "uint256",
          "name": "",
          "type": "uint256"
        }
      ],
      "stateMutability": "view",
      "type": "function"
    },
    {
      "inputs": [],
      "name": "totalPlatformEarnings",
      "outputs": [
        {
          "internalType": "uint256",
          "name": "",
          "type": "uint256"
        }
      ],
      "stateMutability": "view",
      "type": "function"
    },
    {
      "inputs": [],
      "name": "withdrawPlatformEarnings",
      "outputs": [],
      "stateMutability": "nonpayable",
      "type": "function"
    }
  ],
  "bytecode": "0x608060405261271060025534801561001657600080fd5b5060008054336001600160a01b0319918216811783556001805490921617905561171390819061004690396000f3fe608060405234801561001057600080fd5b506004361061018e5760003560e01c80638da5cb5b116100de578063def38dda11610097578063ebd0630811610071578063ebd063081461045d578063efd2f08d14610466578063fa2af9da1461046f578063ffe97e4f1461048257600080fd5b8063def38dda1461042f578063e3b1bba614610437578063ea6170a81461044a57600080fd5b80638da5cb5b1461037957806390d80d1d1461038c5780639d182f0b146103f55780639d56b9cb146103fd578063bfa4c5c114610406578063c1d446be1461040f57600080fd5b80635a3a7ba71161014b5780637d27d66c116101255780637d27d66c146103365780638490589c14610349578063879855ba146103515780638831e9cf1461036657600080fd5b80635a3a7ba7146102b35780636d65573f146102c6578063719a9c701461032157600080fd5b8063050e6af714610193578063258e3ea8146101af57806329c718b5146101b8578063369320131461023757806353d0f190146102635780635691fe631461028e575b600080fd5b61019c61057881565b6040519081526020015b60405180910390f35b61019c60025481565b6102036101c63660046111ce565b6004602081905260009182526040909120805460018201546002830154600384015493909401546001600160a01b03909216939092909160ff1685565b604080516001600160a01b03909616865260208601949094529284019190915260608301521515608082015260a0016101a6565b61019c6102453660046111ce565b6001600160a01b031660009081526005602052604090206001015490565b6102766102713660046111f0565b610495565b6040516001600160a01b0390911681526020016101a6565b6102a161029c3660046111f0565b6104bf565b6040516101a69695949392919061124f565b6102766102c13660046111f0565b61058b565b6102d96102d43660046111ce565b61059b565b6040516101a6919081516001600160a01b0316815260208083015190820152604080830151908201526060808301519082015260809182015115159181019190915260a00190565b61033461032f3660046111ce565b610636565b005b610334610344366004611297565b61078e565b61019c60c881565b6103596108ed565b6040516101a691906112c1565b6103346103743660046111ce565b61094f565b600054610276906001600160a01b031681565b6103cb61039a3660046111ce565b60056020526000908152604090208054600182015460028301546003909301546001600160a01b0390921692909184565b604080516001600160a01b03909516855260208501939093529183015260608201526080016101a6565b6103346109e2565b61019c6104b081565b61019c60075481565b61042261041d3660046111f0565b610a13565b6040516101a6919061130e565b610359610b51565b610334610445366004611372565b610bb1565b6103346104583660046113c4565b610c0a565b61019c60035481565b61019c60085481565b600154610276906001600160a01b031681565b61033461049036600461147f565b610d51565b600a81815481106104a557600080fd5b6000918252602090912001546001600160a01b0316905081565b6006602052600090815260409020805460018201546002830154600384015460048501805494956001600160a01b0390941694929391926104ff906114c1565b80601f016020809104026020016040519081016040528092919081815260200182805461052b906114c1565b80156105785780601f1061054d57610100808354040283529160200191610578565b820191906000526020600020905b81548152906001019060200180831161055b57829003601f168201915b5050506005909301549192505060ff1686565b600981815481106104a557600080fd5b6105d86040518060a0016040528060006001600160a01b031681526020016000815260200160008152602001600081526020016000151581525090565b506001600160a01b03908116600090815260046020818152604092839020835160a0810185528154909516855260018101549185019190915260028101549284019290925260038201546060840152015460ff161515608082015290565b6000546001600160a01b031633146106695760405162461bcd60e51b8152600401610660906114fb565b60405180910390fd5b6001600160a01b0381811660009081526004602052604090205416156106d15760405162461bcd60e51b815260206004820152601760248201527f486f737420616c726561647920726567697374657265640000000000000000006044820152606401610660565b6040805160a0810182526001600160a01b03928316808252600060208084018281528486018381524260608701908152600160808801818152878752600495869052988620975188549a166001600160a01b03199a8b161788559251878401559051600287015551600386015594519301805493151560ff19909416939093179092556009805493840181559091527f6e1540171b6c0c960b71a7020d9f60077f6af931a8bbf590da0223dacf75c7af9091018054909216179055565b6000546001600160a01b031633146107b85760405162461bcd60e51b8152600401610660906114fb565b6001600160a01b038281166000908152600560205260409020541661087b57604080516080810182526001600160a01b0380851680835260006020808501828152858701838152426060880190815285855260059093529683209551865495166001600160a01b0319958616178655516001808701919091559551600286015551600390940193909355600a805494850181559092527fc65a7bb8d6351c1cf70c95a316cc6a92839c986682d98bc35f958f4883f9d2a890920180549092161790555b6001600160a01b038216600090815260056020526040812060010180548392906108a690849061153e565b90915550506040518181526001600160a01b038316907f648ec643b30463f72debf7027a0f9ff84bbdf4dc1a2a7ab973cb77dec53265689060200160405180910390a25050565b6060600a80548060200260200160405190810160405280929190818152602001828054801561094557602002820191906000526020600020905b81546001600160a01b03168152600190910190602001808311610927575b5050505050905090565b6000546001600160a01b031633146109795760405162461bcd60e51b8152600401610660906114fb565b6001600160a01b0381166109c05760405162461bcd60e51b815260206004820152600e60248201526d125b9d985b1a59081dd85b1b195d60921b6044820152606401610660565b600180546001600160a01b0319166001600160a01b0392909216919091179055565b6000546001600160a01b03163314610a0c5760405162461bcd60e51b8152600401610660906114fb565b6000600855565b610a576040518060c001604052806000815260200160006001600160a01b031681526020016000815260200160008152602001606081526020016000151581525090565b600082815260066020908152604091829020825160c0810184528154815260018201546001600160a01b03169281019290925260028101549282019290925260038201546060820152600482018054919291608084019190610ab8906114c1565b80601f0160208091040260200160405190810160405280929190818152602001828054610ae4906114c1565b8015610b315780601f10610b0657610100808354040283529160200191610b31565b820191906000526020600020905b815481529060010190602001808311610b1457829003601f168201915b50505091835250506005919091015460ff16151560209091015292915050565b60606009805480602002602001604051908101604052809291908181526020018280548015610945576020028201919060005260206000209081546001600160a01b03168152600190910190602001808311610927575050505050905090565b6000546001600160a01b03163314610bdb5760405162461bcd60e51b8152600401610660906114fb565b6001600160a01b0391909116600090815260046020819052604090912001805460ff1916911515919091179055565b6000546001600160a01b03163314610c345760405162461bcd60e51b8152600401610660906114fb565b600082815260066020526040902060018101546001600160a01b0316610c9c5760405162461bcd60e51b815260206004820152601860248201527f5061796d656e74207265636f7264206e6f7420666f756e6400000000000000006044820152606401610660565b600581015460ff1615610ce35760405162461bcd60e51b815260206004820152600f60248201526e105b1c9958591e481cd95d1d1b1959608a1b6044820152606401610660565b60058101805460ff1916600117905560048101610d0083826115a5565b5060018101546040516001600160a01b039091169084907fa3ec7ea608b98f55cfc608b0580285cc9780ab2d537999b9267579c4bdffd39b90610d44908690611665565b60405180910390a3505050565b6000546001600160a01b03163314610d7b5760405162461bcd60e51b8152600401610660906114fb565b6001600160a01b0380851660009081526005602052604090208054909116610ddd5760405162461bcd60e51b815260206004820152601560248201527414995b9d195c881b9bdd081c9959da5cdd195c9959605a1b6044820152606401610660565b8281600101541015610e315760405162461bcd60e51b815260206004820152601a60248201527f496e73756666696369656e742072656e746572206372656469740000000000006044820152606401610660565b82816001016000828254610e459190611678565b9250508190555082816002016000828254610e60919061153e565b90915550504260038201556000610578610e7c6104b08661168b565b610e8691906116a2565b90506000610e948286611678565b9050610ea08683610fc2565b8060076000828254610eb2919061153e565b925050819055508060086000828254610ecb919061153e565b90915550506008546040805183815260208101929092527f2e298a3a85ce369c77c9d82efa14a04386b4793f48cc8a88c98ff858df8ce2bb910160405180910390a161138883600101541015610f6357866001600160a01b03167feac6f86e62889748485a617cdcc54225799513abee76944e621db1e96cb78c228460010154604051610f5a91815260200190565b60405180910390a25b856001600160a01b0316876001600160a01b03167fd9327f967b8c3a33834c1fe48100b93eaf6577c00edf4f92924818f5bac867318787604051610fb1929190918252602082015260400190565b60405180910390a350505050505050565b6001600160a01b0380831660009081526004602052604090208054909116610fe957505050565b81816001016000828254610ffd919061153e565b9250508190555081816002016000828254611018919061153e565b909155505060018101546040516001600160a01b038516917f08a7f93e5890701e3c2c75cd8ded274c4726ccd6ae826b502ecc88f515b692ed9161106491868252602082015260400190565b60405180910390a26002548160010154101580156110865750600481015460ff165b156111ad5760018101805460009182905542600380850191909155805491929190826110b1836116c4565b909155506040805160c0810182528281526001600160a01b03888116602080840191825283850188815242606086019081528651808401885260008082526080880191825260a088018190528981526006909452969092208551815592516001840180546001600160a01b03191691909516179093559151600282015590516003820155915192935091600482019061114a90826115a5565b5060a091909101516005909101805460ff191691151591909117905560408051838152602081018390526001600160a01b038716917f671d9c3144c0693f1fba6d9b21eb34a04937de90ef65839cdb2bbf327f3c8144910160405180910390a250505b505050565b80356001600160a01b03811681146111c957600080fd5b919050565b6000602082840312156111e057600080fd5b6111e9826111b2565b9392505050565b60006020828403121561120257600080fd5b5035919050565b6000815180845260005b8181101561122f57602081850181015186830182015201611213565b506000602082860101526020601f19601f83011685010191505092915050565b86815260018060a01b038616602082015284604082015283606082015260c06080820152600061128260c0830185611209565b905082151560a0830152979650505050505050565b600080604083850312156112aa57600080fd5b6112b3836111b2565b946020939093013593505050565b6020808252825182820181905260009190848201906040850190845b818110156113025783516001600160a01b0316835292840192918401916001016112dd565b50909695505050505050565b602081528151602082015260018060a01b03602083015116604082015260408201516060820152606082015160808201526000608083015160c060a084015261135a60e0840182611209565b905060a0840151151560c08401528091505092915050565b6000806040838503121561138557600080fd5b61138e836111b2565b9150602083013580151581146113a357600080fd5b809150509250929050565b634e487b7160e01b600052604160045260246000fd5b600080604083850312156113d757600080fd5b82359150602083013567ffffffffffffffff808211156113f657600080fd5b818501915085601f83011261140a57600080fd5b81358181111561141c5761141c6113ae565b604051601f8201601f19908116603f01168101908382118183101715611444576114446113ae565b8160405282815288602084870101111561145d57600080fd5b8260208601602083013760006020848301015280955050505050509250929050565b6000806000806080858703121561149557600080fd5b61149e856111b2565b93506114ac602086016111b2565b93969395505050506040820135916060013590565b600181811c908216806114d557607f821691505b6020821081036114f557634e487b7160e01b600052602260045260246000fd5b50919050565b60208082526013908201527227b7363c90383630ba3337b9369030b236b4b760691b604082015260600190565b634e487b7160e01b600052601160045260246000fd5b8082018082111561155157611551611528565b92915050565b601f8211156111ad57600081815260208120601f850160051c8101602086101561157e5750805b601f850160051c820191505b8181101561159d5782815560010161158a565b505050505050565b815167ffffffffffffffff8111156115bf576115bf6113ae565b6115d3816115cd84546114c1565b84611557565b602080601f83116001811461160857600084156115f05750858301515b600019600386901b1c1916600185901b17855561159d565b600085815260208120601f198616915b8281101561163757888601518255948401946001909101908401611618565b50858210156116555787850151600019600388901b60f8161c191681555b5050505050600190811b01905550565b6020815260006111e96020830184611209565b8181038181111561155157611551611528565b808202811582820484141761155157611551611528565b6000826116bf57634e487b7160e01b600052601260045260246000fd5b500490565b6000600182016116d6576116d6611528565b506001019056fea2646970667358221220ee65903ff890e7fa604990551e000605f916f13d2bf70aa24c6bc0156ee2d3fb64736f6c63430008140033",
  "linkReferences": {},
  "deployedLinkReferences": {}
}