{
  "_format": "hh-sol-artifact-1",
  "contractName": "PaymentLedger",
  "sourceName": "contracts/PaymentLedger.sol",
  "abi": [
    {
      "inputs": [],
      "stateMutability": "nonpayable",
      "type": "constructor"
    },
    {
      "anonymous": false,
      "inputs": [
        {
          "indexed": true,
          "internalType": "address",
          "name": "renter",
          "type": "address"
        },
        {
          "indexed": false,
          "internalType": "uint256",
          "name": "amount",
          "type": "uint256"
        }
      ],
      "name": "CreditAdded",
      "type": "event"
    },
    {
      "anonymous": false,
      "inputs": [
        {
          "indexed": true,
          "internalType": "address",
          "name": "host",
          "type": "address"
        },
        {
          "indexed": false,
          "internalType": "uint256",
          "name": "amount",
          "type": "uint256"
        },
        {
          "indexed": false,
          "internalType": "uint256",
          "name": "newTotal",
          "type": "uint256"
        }
      ],
      "name": "EarningsAccrued",
      "type": "event"
    },
    {
      "anonymous": false,
      "inputs": [
        {
          "indexed": true,
          "internalType": "address",
          "name": "host",
          "type": "address"
        },
        {
          "indexed": false,
          "internalType": "uint256",
          "name": "amount",
          "type": "uint256"
        },
        {
          "indexed": false,
          "internalType": "uint256",
          "name": "paymentId",
          "type": "uint256"
        }
      ],
      "name": "PaymentDue",
      "type": "event"
    },
    {
      "anonymous": false,
      "inputs": [
        {
          "indexed": true,
          "internalType": "uint256",
          "name": "paymentId",
          "type": "uint256"
        },
        {
          "indexed": true,
          "internalType": "address",
          "name": "host",
          "type": "address"
        },
        {
          "indexed": false,
          "internalType": "string",
          "name": "transactionRef",
          "type": "string"
        }
      ],
      "name": "PaymentSettled",
      "type": "event"
    },
    {
      "anonymous": false,
      "inputs": [
        {
          "indexed": true,
          "internalType": "address",
          "name": "renter",
          "type": "address"
        },
        {
          "indexed": false,
          "internalType": "uint256",
          "name": "remainingBalance",
          "type": "uint256"
        }
      ],
      "name": "RenterLowBalance",
      "type": "event"
    },
    {
      "anonymous": false,
      "inputs": [
        {
          "indexed": true,
          "internalType": "address",
          "name": "renter",
          "type": "address"
        },
        {
          "indexed": true,
          "internalType": "address",
          "name": "host",
          "type": "address"
        },
        {
          "indexed": false,
          "internalType": "uint256",
          "name": "amount",
          "type": "uint256"
        },
        {
          "indexed": false,
          "internalType": "bytes32",
          "name": "fileId",
          "type": "bytes32"
        }
      ],
      "name": "StorageCharged",
      "type": "event"
    },
    {
      "inputs": [
        {
          "internalType": "address",
          "name": "_renter",
          "type": "address"
        },
        {
          "internalType": "uint256",
          "name": "_amount",
          "type": "uint256"
        }
      ],
      "name": "addCredit",
      "outputs": [],
      "stateMutability": "nonpayable",
      "type": "function"
    },
    {
      "inputs": [
        {
          "internalType": "address",
          "name": "_renter",
          "type": "address"
        },
        {
          "internalType": "address",
          "name": "_host",
          "type": "address"
        },
        {
          "internalType": "uint256",
          "name": "_amount",
          "type": "uint256"
        },
        {
          "internalType": "bytes32",
          "name": "_fileId",
          "type": "bytes32"
        }
      ],
      "name": "chargeStorageUsage",
      "outputs": [],
      "stateMutability": "nonpayable",
      "type": "function"
    },
    {
      "inputs": [
        {
          "internalType": "uint256",
          "name": "_paymentId",
          "type": "uint256"
        },
        {
          "internalType": "string",
          "name": "_transactionRef",
          "type": "string"
        }
      ],
      "name": "confirmSettlement",
      "outputs": [],
      "stateMutability": "nonpayable",
      "type": "function"
    },
    {
      "inputs": [],
      "name": "getAllHosts",
      "outputs": [
        {
          "internalType": "address[]",
          "name": "",
          "type": "address[]"
        }
      ],
      "stateMutability": "view",
      "type": "function"
    },
    {
      "inputs": [
        {
          "internalType": "address",
          "name": "_hostWallet",
          "type": "address"
        }
      ],
      "name": "getHostEarnings",
      "outputs": [
        {
          "components": [
            {
              "internalType": "address",
              "name": "hostWallet",
              "type": "address"
            },
            {
              "internalType": "uint256",
              "name": "accruedAmount",
              "type": "uint256"
            },
            {
              "internalType": "uint256",
              "name": "totalLifetimeEarned",
              "type": "uint256"
            },
            {
              "internalType": "uint256",
              "name": "lastSettlementTime",
              "type": "uint256"
            },
            {
              "internalType": "bool",
              "name": "payoutEnabled",
              "type": "bool"
            }
          ],
          "internalType": "struct PaymentLedger.HostEarnings",
          "name": "",
          "type": "tuple"
        }
      ],
      "stateMutability": "view",
      "type": "function"
    },
    {
      "inputs": [
        {
          "internalType": "uint256",
          "name": "_paymentId",
          "type": "uint256"
        }
      ],
      "name": "getPaymentRecord",
      "outputs": [
        {
          "components": [
            {
              "internalType": "uint256",
              "name": "id",
              "type": "uint256"
            },
            {
              "internalType": "address",
              "name": "recipient",
              "type": "address"
            },
            {
              "internalType": "uint256",
              "name": "amount",
              "type": "uint256"
            },
            {
              "internalType": "uint256",
              "name": "timestamp",
              "type": "uint256"
            },
            {
              "internalType": "string",
              "name": "transactionRef",
              "type": "string"
            },
            {
              "internalType": "bool",
              "name": "settled",
              "type": "bool"
            }
          ],
          "internalType": "struct PaymentLedger.PaymentRecord",
          "name": "",
          "type": "tuple"
        }
      ],
      "stateMutability": "view",
      "type": "function"
    },
    {
      "inputs": [
        {
          "internalType": "address",
          "name": "_renterWallet",
          "type": "address"
        }
      ],
      "name": "getRenterBalance",
      "outputs": [
        {
          "internalType": "uint256",
          "name": "",
          "type": "uint256"
        }
      ],
      "stateMutability": "view",
      "type": "function"
    },
    {
      "inputs": [
        {
          "internalType": "address",
          "name": "",
          "type": "address"
        }
      ],
      "name": "hostEarnings",
      "outputs": [
        {
          "internalType": "address",
          "name": "hostWallet",
          "type": "address"
        },
        {
          "internalType": "uint256",
          "name": "accruedAmount",
          "type": "uint256"
        },
        {
          "internalType": "uint256",
          "name": "totalLifetimeEarned",
          "type": "uint256"
        },
        {
          "internalType": "uint256",
          "name": "lastSettlementTime",
          "type": "uint256"
        },
        {
          "internalType": "bool",
          "name": "payoutEnabled",
          "type": "bool"
        }
      ],
      "stateMutability": "view",
      "type": "function"
    },
    {
      "inputs": [],
      "name": "owner",
      "outputs": [
        {
          "internalType": "address",
          "name": "",
          "type": "address"
        }
      ],
      "stateMutability": "view",
      "type": "function"
    },
    {
      "inputs": [
        {
          "internalType": "uint256",
          "name": "",
          "type": "uint256"
        }
      ],
      "name": "paymentRecords",
      "outputs": [
        {
          "internalType": "uint256",
          "name": "id",
          "type": "uint256"
        },
        {
          "internalType": "address",
          "name": "recipient",
          "type": "address"
        },
        {
          "internalType": "uint256",
          "name": "amount",
          "type": "uint256"
        },
        {
          "internalType": "uint256",
          "name": "timestamp",
          "type": "uint256"
        },
        {
          "internalType": "string",
          "name": "transactionRef",
          "type": "string"
        },
        {
          "internalType": "bool",
          "name": "settled",
          "type": "bool"
        }
      ],
      "stateMutability": "view",
      "type": "function"
    },
    {
      "inputs": [],
      "name": "platformFeePercent",
      "outputs": [
        {
          "internalType": "uint256",
          "name": "",
          "type": "uint256"
        }
      ],
      "stateMutability": "view",
      "type": "function"
    },
    {
      "inputs": [
        {
          "internalType": "address",
          "name": "_hostWallet",
          "type": "address"
        }
      ],
      "name": "registerHost",
      "outputs": [],
      "stateMutability": "nonpayable",
      "type": "function"
    },
    {
      "inputs": [
        {
          "internalType": "uint256",
          "name": "",
          "type": "uint256"
        }
      ],
      "name": "registeredHosts",
      "outputs": [
        {
          "internalType": "address",
          "name": "",
          "type": "address"
        }
      ],
      "stateMutability": "view",
      "type": "function"
    },
    {
      "inputs": [
        {
          "internalType": "uint256",
          "name": "",
          "type": "uint256"
        }
      ],
      "name": "registeredRenters",
      "outputs": [
        {
          "internalType": "address",
          "name": "",
          "type": "address"
        }
      ],
      "stateMutability": "view",
      "type": "function"
    },
    {
      "inputs": [
        {
          "internalType": "address",
          "name": "",
          "type": "address"
        }
      ],
      "name": "renterAccounts",
      "outputs": [
        {
          "internalType": "address",
          "name": "renterWallet",
          "type": "address"
        },
        {
          "internalType": "uint256",
          "name": "creditBalance",
          "type": "uint256"
        },
        {
          "internalType": "uint256",
          "name": "totalSpent",
          "type": "uint256"
        },
        {
          "internalType": "uint256",
          "name": "lastBillingTime",
          "type": "uint256"
        }
      ],
      "stateMutability": "view",
      "type": "function"
    },
    {
      "inputs": [
        {
          "internalType": "address",
          "name": "_hostWallet",
          "type": "address"
        },
        {
          "internalType": "bool",
          "name": "_enabled",
          "type": "bool"
        }
      ],
      "name": "setPayoutEnabled",
      "outputs": [],
      "stateMutability": "nonpayable",
      "type": "function"
    },
    {
      "inputs": [],
      "name": "settlementThreshold",
      "outputs": [
        {
          "internalType": "uint256",
          "name": "",
          "type": "uint256"
        }
      ],
      "stateMutability": "view",
      "type": "function"
    },
    {
      "inputs": [],
      "name": "totalPaymentsCount",
      "outputs": [
        {
          "internalType": "uint256",
          "name": "",
          "type": "uint256"
        }
      ],
      "stateMutability": "view",
      "type": "function"
    }
  ],
  "bytecode": "0x6080604052612710600155600560025534801561001b57600080fd5b50600080546001600160a01b031916331790556114b38061003d6000396000f3fe608060405234801561001057600080fd5b50600436106101165760003560e01c80638c639a85116100a2578063def38dda11610071578063def38dda1461036d578063e3b1bba614610382578063ea6170a814610395578063ebd06308146103a8578063ffe97e4f146103b157600080fd5b80638c639a85146102c85780638da5cb5b146102d157806390d80d1d146102e4578063c1d446be1461034d57600080fd5b80635691fe63116100e95780635691fe631461020d5780635a3a7ba7146102325780636d65573f14610245578063719a9c70146102a05780637d27d66c146102b557600080fd5b8063258e3ea81461011b57806329c718b51461013757806336932013146101b657806353d0f190146101e2575b600080fd5b61012460015481565b6040519081526020015b60405180910390f35b610182610145366004610f6e565b6004602081905260009182526040909120805460018201546002830154600384015493909401546001600160a01b03909216939092909160ff1685565b604080516001600160a01b03909616865260208601949094529284019190915260608301521515608082015260a00161012e565b6101246101c4366004610f6e565b6001600160a01b031660009081526005602052604090206001015490565b6101f56101f0366004610f90565b6103c4565b6040516001600160a01b03909116815260200161012e565b61022061021b366004610f90565b6103ee565b60405161012e96959493929190610fef565b6101f5610240366004610f90565b6104ba565b610258610253366004610f6e565b6104ca565b60405161012e919081516001600160a01b0316815260208083015190820152604080830151908201526060808301519082015260809182015115159181019190915260a00190565b6102b36102ae366004610f6e565b610565565b005b6102b36102c3366004611037565b6106bd565b61012460025481565b6000546101f5906001600160a01b031681565b6103236102f2366004610f6e565b60056020526000908152604090208054600182015460028301546003909301546001600160a01b0390921692909184565b604080516001600160a01b039095168552602085019390935291830152606082015260800161012e565b61036061035b366004610f90565b61081c565b60405161012e9190611061565b61037561095a565b60405161012e91906110c5565b6102b3610390366004611112565b6109bc565b6102b36103a3366004611164565b610a15565b61012460035481565b6102b36103bf36600461121f565b610b5c565b600881815481106103d457600080fd5b6000918252602090912001546001600160a01b0316905081565b6006602052600090815260409020805460018201546002830154600384015460048501805494956001600160a01b03909416949293919261042e90611261565b80601f016020809104026020016040519081016040528092919081815260200182805461045a90611261565b80156104a75780601f1061047c576101008083540402835291602001916104a7565b820191906000526020600020905b81548152906001019060200180831161048a57829003601f168201915b5050506005909301549192505060ff1686565b600781815481106103d457600080fd5b6105076040518060a0016040528060006001600160a01b031681526020016000815260200160008152602001600081526020016000151581525090565b506001600160a01b03908116600090815260046020818152604092839020835160a0810185528154909516855260018101549185019190915260028101549284019290925260038201546060840152015460ff161515608082015290565b6000546001600160a01b031633146105985760405162461bcd60e51b815260040161058f9061129b565b60405180910390fd5b6001600160a01b0381811660009081526004602052604090205416156106005760405162461bcd60e51b815260206004820152601760248201527f486f737420616c72656164792072656769737465726564000000000000000000604482015260640161058f565b6040805160a0810182526001600160a01b03928316808252600060208084018281528486018381524260608701908152600160808801818152878752600495869052988620975188549a166001600160a01b03199a8b161788559251878401559051600287015551600386015594519301805493151560ff19909416939093179092556007805493840181559091527fa66cc928b5edb82af9bd49922954155ab7b0942694bea4ce44661d9a8736c6889091018054909216179055565b6000546001600160a01b031633146106e75760405162461bcd60e51b815260040161058f9061129b565b6001600160a01b03828116600090815260056020526040902054166107aa57604080516080810182526001600160a01b0380851680835260006020808501828152858701838152426060880190815285855260059093529683209551865495166001600160a01b03199586161786555160018087019190915595516002860155516003909401939093556008805494850181559092527ff3f7a9fe364faab93b216da50a3214154f22a0a2b415b23a84c8169e8b636ee390920180549092161790555b6001600160a01b038216600090815260056020526040812060010180548392906107d59084906112de565b90915550506040518181526001600160a01b038316907f648ec643b30463f72debf7027a0f9ff84bbdf4dc1a2a7ab973cb77dec53265689060200160405180910390a25050565b6108606040518060c001604052806000815260200160006001600160a01b031681526020016000815260200160008152602001606081526020016000151581525090565b600082815260066020908152604091829020825160c0810184528154815260018201546001600160a01b031692810192909252600281015492820192909252600382015460608201526004820180549192916080840191906108c190611261565b80601f01602080910402602001604051908101604052809291908181526020018280546108ed90611261565b801561093a5780601f1061090f5761010080835404028352916020019161093a565b820191906000526020600020905b81548152906001019060200180831161091d57829003601f168201915b50505091835250506005919091015460ff16151560209091015292915050565b606060078054806020026020016040519081016040528092919081815260200182805480156109b257602002820191906000526020600020905b81546001600160a01b03168152600190910190602001808311610994575b5050505050905090565b6000546001600160a01b031633146109e65760405162461bcd60e51b815260040161058f9061129b565b6001600160a01b0391909116600090815260046020819052604090912001805460ff1916911515919091179055565b6000546001600160a01b03163314610a3f5760405162461bcd60e51b815260040161058f9061129b565b600082815260066020526040902060018101546001600160a01b0316610aa75760405162461bcd60e51b815260206004820152601860248201527f5061796d656e74207265636f7264206e6f7420666f756e640000000000000000604482015260640161058f565b600581015460ff1615610aee5760405162461bcd60e51b815260206004820152600f60248201526e105b1c9958591e481cd95d1d1b1959608a1b604482015260640161058f565b60058101805460ff1916600117905560048101610b0b8382611345565b5060018101546040516001600160a01b039091169084907fa3ec7ea608b98f55cfc608b0580285cc9780ab2d537999b9267579c4bdffd39b90610b4f908690611405565b60405180910390a3505050565b6000546001600160a01b03163314610b865760405162461bcd60e51b815260040161058f9061129b565b6001600160a01b0380851660009081526005602052604090208054909116610be85760405162461bcd60e51b815260206004820152601560248201527414995b9d195c881b9bdd081c9959da5cdd195c9959605a1b604482015260640161058f565b8281600101541015610c3c5760405162461bcd60e51b815260206004820152601a60248201527f496e73756666696369656e742072656e74657220637265646974000000000000604482015260640161058f565b82816001016000828254610c509190611418565b9250508190555082816002016000828254610c6b91906112de565b9091555050426003820155600254600090606490610c89908661142b565b610c939190611442565b90506000610ca18286611418565b9050610cad8682610d62565b61138883600101541015610d0357866001600160a01b03167feac6f86e62889748485a617cdcc54225799513abee76944e621db1e96cb78c228460010154604051610cfa91815260200190565b60405180910390a25b856001600160a01b0316876001600160a01b03167fd9327f967b8c3a33834c1fe48100b93eaf6577c00edf4f92924818f5bac867318787604051610d51929190918252602082015260400190565b60405180910390a350505050505050565b6001600160a01b0380831660009081526004602052604090208054909116610d8957505050565b81816001016000828254610d9d91906112de565b9250508190555081816002016000828254610db891906112de565b909155505060018101546040516001600160a01b038516917f08a7f93e5890701e3c2c75cd8ded274c4726ccd6ae826b502ecc88f515b692ed91610e0491868252602082015260400190565b60405180910390a2600154816001015410158015610e265750600481015460ff165b15610f4d576001810180546000918290554260038085019190915580549192919082610e5183611464565b909155506040805160c0810182528281526001600160a01b03888116602080840191825283850188815242606086019081528651808401885260008082526080880191825260a088018190528981526006909452969092208551815592516001840180546001600160a01b031916919095161790935591516002820155905160038201559151929350916004820190610eea9082611345565b5060a091909101516005909101805460ff191691151591909117905560408051838152602081018390526001600160a01b038716917f671d9c3144c0693f1fba6d9b21eb34a04937de90ef65839cdb2bbf327f3c8144910160405180910390a250505b505050565b80356001600160a01b0381168114610f6957600080fd5b919050565b600060208284031215610f8057600080fd5b610f8982610f52565b9392505050565b600060208284031215610fa257600080fd5b5035919050565b6000815180845260005b81811015610fcf57602081850181015186830182015201610fb3565b506000602082860101526020601f19601f83011685010191505092915050565b86815260018060a01b038616602082015284604082015283606082015260c06080820152600061102260c0830185610fa9565b905082151560a0830152979650505050505050565b6000806040838503121561104a57600080fd5b61105383610f52565b946020939093013593505050565b602081528151602082015260018060a01b03602083015116604082015260408201516060820152606082015160808201526000608083015160c060a08401526110ad60e0840182610fa9565b905060a0840151151560c08401528091505092915050565b6020808252825182820181905260009190848201906040850190845b818110156111065783516001600160a01b0316835292840192918401916001016110e1565b50909695505050505050565b6000806040838503121561112557600080fd5b61112e83610f52565b91506020830135801515811461114357600080fd5b809150509250929050565b634e487b7160e01b600052604160045260246000fd5b6000806040838503121561117757600080fd5b82359150602083013567ffffffffffffffff8082111561119657600080fd5b818501915085601f8301126111aa57600080fd5b8135818111156111bc576111bc61114e565b604051601f8201601f19908116603f011681019083821181831017156111e4576111e461114e565b816040528281528860208487010111156111fd57600080fd5b8260208601602083013760006020848301015280955050505050509250929050565b6000806000806080858703121561123557600080fd5b61123e85610f52565b935061124c60208601610f52565b93969395505050506040820135916060013590565b600181811c9082168061127557607f821691505b60208210810361129557634e487b7160e01b600052602260045260246000fd5b50919050565b60208082526013908201527227b7363c90383630ba3337b9369030b236b4b760691b604082015260600190565b634e487b7160e01b600052601160045260246000fd5b808201808211156112f1576112f16112c8565b92915050565b601f821115610f4d57600081815260208120601f850160051c8101602086101561131e5750805b601f850160051c820191505b8181101561133d5782815560010161132a565b505050505050565b815167ffffffffffffffff81111561135f5761135f61114e565b6113738161136d8454611261565b846112f7565b602080601f8311600181146113a857600084156113905750858301515b600019600386901b1c1916600185901b17855561133d565b600085815260208120601f198616915b828110156113d7578886015182559484019460019091019084016113b8565b50858210156113f55787850151600019600388901b60f8161c191681555b5050505050600190811b01905550565b602081526000610f896020830184610fa9565b818103818111156112f1576112f16112c8565b80820281158282048414176112f1576112f16112c8565b60008261145f57634e487b7160e01b600052601260045260246000fd5b500490565b600060018201611476576114766112c8565b506001019056fea2646970667358221220c094193bfc2c05bcfe4858f634e23380e6d5181deee370f990badc273dfc2cd764736f6c63430008140033",
  "linkReferences": {},
  "deployedLinkReferences": {}
}